:020000040800F2
:10000000C8070020C5390008CD390008CF390008DD
:10001000D1390008D3390008D539000800000000A4
:10002000000000000000000000000000D7390008B8
:10003000D939000800000000DB390008DD3900086C
:10004000DF390008DF390008DF390008DF39000830
:10005000DF390008DF390008DF390008DF39000820
:10006000DF390008DF390008DF390008DF39000810
:10007000DF390008DF390008DF390008DF39000800
:10008000DF390008DF390008DF390008DF390008F0
:10009000DF390008DF390008DF390008A51500083E
:1000A000DF390008DF390008DF390008DF390008D0
:1000B000BB15000873160008DF390008DF39000897
:1000C000DF390008DF390008DF390008DF390008B0
:1000D000DF390008DF390008DF390008DF390008A0
:1000E000DF390008DF390008DF390008DF39000890
:1000F000DF390008DF390008DF390008DF39000880
:10010000DF390008DF390008DF390008DF3900086F
:10011000DF390008DF390008DF390008DF3900085F
:10012000DF390008DF390008DF390008DF3900084F
:10013000DF390008DF390008DF390008DF3900083F
:10014000DF390008DF390008DF390008DF3900082F
:10015000DF390008DF390008DF390008DF3900081F
:10016000DF390008DF390008DF390008DF3900080F
:10017000DF390008DF390008DF390008DF390008FF
:10018000DF390008DF39000800F002F800F05CF801
:100190000AA090E8000C82448344AAF10107DA45E2
:1001A00001D100F051F8AFF2090EBAE80F0013F0D8
:1001B000010F18BFFB1A43F00103184760510000FC
:1001C000805100000A444FF0000C10F8013B13F07E
:1001D000070408BF10F8014B1D1108BF10F8015BA0
:1001E000641E05D010F8016B641E01F8016BF9D193
:1001F00013F0080F1EBF10F8014BAD1C0C1B09D1EA
:100200006D1E58BF01F801CBFAD505E014F8016B5B
:1002100001F8016B6D1EF9D59142D6D370470000ED
:100220000023002400250026103A28BF78C1FBD8FF
:10023000520728BF30C148BF0B6070471FB504F09C
:1002400003F81FBD10B510BD03F019FD1146FFF7EF
:10025000F5FF01F033F903F037FD03B4FFF7F2FFC8
:1002600003BC03F03BFD0000014607E0002001E075
:10027000421C90B246F2A8129042F9DB0A00A1F1AA
:100280000101F3D1704710B54FF48071F84802F0C6
:10029000C7FE002877D1F748007800283AD0F64802
:1002A0000078072804D0082810D009282AD11BE09C
:1002B000F2480078002805DDF0480078401EEF493C
:1002C000087002E03B20ED4908701CE0EC48007823
:1002D000002805DDEA480078401EE949087002E080
:1002E0003B20E74908700EE0E6480078002805DD6D
:1002F000E4480078401EE349087002E06320E049CA
:10030000087000E000BF00BF00BF01F02FFA012815
:10031000FBD010BDDC48007805280FD2DFE800F0E4
:10032000030F27348000D9490978C81CC11700EB96
:1003300091718910A0EB8101D44A117076E0D34805
:100340000078401ED149087008460078052806D17B
:10035000CF48007818B908460078401E0870CB488E
:100360000078042802DA0620C84908705EE0C74811
:100370000078401EC549087008460078072801DA51
:100380000A20087052E052E0C0480078401EBF4981
:100390000870084600780B2801DA0E200870BB4868
:1003A00000780B2806D00C2811D00D281CD00E2860
:1003B00034D126E0B748B8490860B848B849086061
:1003C0000020B84908800120B749087026E0B748E6
:1003D000B1490860B648B24908600020B1490880B8
:1003E0000120B149087019E0B248AB490860B24831
:1003F000AB4908600020AB4908800120AA49087079
:100400000CE0AE48A4490860AD48A549086000204A
:10041000A44908800120A449087000BF00BF05E07E
:100420000020994908709949087000BF4AE24FF4CA
:100430000051A44802F0F4FD002877D18D480078DF
:1004400090B38D480078072804D0082810D00928D8
:100450002BD11BE0894800783B2805DA87480078D3
:10046000401C8649087002E00020844908701DE0A5
:10047000834800783B2805DA81480078401C804991
:10048000087002E000207D4908700FE07D48007888
:10049000632805DA7B480078401C7A49087002E03E
:1004A00000207649087001E007E000BF00BF00BFF0
:1004B00001F05CF90228FBD02BE77348007805288F
:1004C0000FD2DFE800F0030F273480006F4909786E
:1004D000481CC11700EB91718910A0EB81016B4A98
:1004E000117076E069480078401C68490870084639
:1004F0000078052806D16648007818B908460078C3
:10050000401C087061480078062802DD04205F491D
:1005100008705EE05D480078401C5C490870084641
:1005200000780A2801DD0720087052E058E057489B
:100530000078401C55490870084600780E2801DDF7
:100540000B200870514800780B2806D00C2811D0D9
:100550000D281CD00E2834D126E04E484E490860A4
:100560004E484F49086000204E49088001204E49FE
:10057000087026E04D48484908604D4848490860E1
:1005800000204849088001204749087019E049487F
:1005900041490860484842490860002041490880B4
:1005A0000120414908700CE044483B490860444838
:1005B0003B49086000203B49088001203A49087007
:1005C00000BF00BF05E000202F4908702F490870C8
:1005D00000BF00BF00BF01F0C9F80228FBD071E1E5
:1005E0004FF40061224802F01BFD0028F7D121489A
:1005F000007840B100201F49087000BF01F0B6F834
:100600000328FBD085E62048007805282FD2DFE8B4
:1006100000F0037BD8FCFA001C48007830B10128B8
:1006200017D002281CD0032867D153E001201649B7
:100630000870042015490870104800782249087095
:100640000F480078214908700E480078204908704A
:1006500053E002200C49087007200C4908704CE058
:100660000320094908700B200849087045E028E17B
:10067000002002401000002013000020080000208D
:10068000090000200A0000200000002001000020D6
:100690000200002016000020180100202600002083
:1006A0001C01002014000020120000203600002051
:1006B000560000207600002098000020BA0000209C
:1006C000C6000020000802400B0000200C000020A3
:1006D0000D0000200420FE4908700F20FD4908701D
:1006E000FD48FE490860FE48FE4908600020FE49BA
:1006F00008800120FD49087000BF00BF00BF01F065
:1007000035F80328FBD0DCE0F2480078042804D058
:10071000052829D006284DD138E0F548007840B9A1
:100720000120F4490870F24908700220F24908706B
:1007300019E00020EF490870ED4908700220EE49E9
:100740000870EE480078EE490870EE480078EE49EF
:100750000870EE480078EE4908700020ED490870F6
:100760000420DC49087025E0E3480078022806D11F
:100770000120E84908700320DF49087005E00020E7
:10078000E44908700220DC49087013E00020D049D9
:100790000870D0490870D7490870D5490870022000
:1007A000D54908700020DB490870D0490870DA4943
:1007B000087000BF00BF00BF00F0D8FF0328FBD0C7
:1007C0007FE0C4480078072806D0082805D009280B
:1007D00004D00A2810D109E000BF00BF0120CF4992
:1007E0000870BC480078CE49087005E00020B84980
:1007F0000870B849087000BF00BF00BF00F0B6FF26
:100800000328FBD05DE04CE0FFE7B24800780B28FE
:1008100006D00C2810D00D281AD00E2830D123E095
:10082000C048AE490860C048AE4908600020AE49E3
:100830000880AE49087023E0BC48A8490860BC485D
:10084000A84908600020A8490880A849087017E056
:10085000B848A2490860B848A24908600020A249E7
:100860000880A24908700BE0B4489C490860B4486D
:100870009C49086000209C4908809C49087000BF82
:1008800000BF0020924908709249087000BF00F034
:100890006DFF0328FBD00020944908709E49087022
:1008A0000FE000208A4908708A49087000BF00F0F4
:1008B0005DFF0328FBD000208C4908709649087022
:1008C00000BF00BF00BF00F051FF0028FBD100BFF8
:1008D0001FE5002090490870704710B52DED068B7C
:1008E0000446002097490880204603F084FB41EC31
:1008F0001A0B9FED950B53EC102B03F0A7FB41EC6B
:10090000190B53EC192B9FED920B51EC100B03F0CC
:10091000EDF941EC180B03F041FB8F4908800120F1
:100920007D490870BDEC068B10BD10B56F4800788E
:1009300000B910BD694800686B49098830F9110099
:10094000401C00B3854800686749098888421AD06E
:1009500062490968644A128831F91200FFF7BDFF45
:10096000614800887D4908605E4800685E490988E2
:1009700030F911000A2190FBF1F0794908607948BB
:100980000068794908607748006877490968401A23
:100990007349096888420CD3FFF79BFF0F20FFF7CC
:1009A00063FC51480088401C4F49088000206C4976
:1009B00008604A4800684C49098830F91100401C19
:1009C00020B9FFF786FF00204749088000BFB0E745
:1009D00010B5E2B0602265494AA803F01BF9602215
:1009E0006249603132A803F015F960225F49C031D5
:1009F0001AA803F00FF960225D4902A803F00AF972
:100A000000200090019001F091F8002417E059486F
:100A100000573030802803DC56480057002805DA9C
:100A20005548005D404240B2534908555148005D69
:100A30005149095D084440B24E490855641C042CD4
:100A4000E5DB0024B4E04B4909784B4A1278891A57
:100A500001EB0411C8B26A46002101F083F8454950
:100A6000097801EB0411C8B24AA901EB4412002134
:100A700001F0B4F83F4949783F4A5278891A01EBAE
:100A80000411C8B26A46102101F06CF8394949785E
:100A900001EB0411C8B232A901EB4412102101F09C
:100AA0009DF834498978344A9278891A01EB041107
:100AB000C8B26A46202101F055F82E49897801EB29
:100AC0000411C8B21AA901EB4412202156E000001B
:100AD0000000002001000020D200002018010020AA
:100AE000F60000201C01002014000020120000204D
:100AF000020000200E00002003000020080000205B
:100B00000B000020090000200C0000200A0000203B
:100B10000D0000200F000020110000201000002018
:100B200013000020160000202600002036000020C0
:100B3000560000207600002098000020BA00002017
:100B4000C60000203E010020710669484864B63F97
:100B5000000000000088C3403C0100203401002058
:100B60002C01002004000020300100209C4D0008D2
:100B7000BC4E0008200100202401002001F02EF8C6
:100B8000FA49C978FA4AD278891A01EB0411C8B235
:100B90006A46302100F0E6FFF449C97801EB041100
:100BA000C8B202A901EB4412302101F017F8641C0D
:100BB000032CFFF648AF3220FFF756FB62B010BDA2
:100BC00010B5D0B05022EB493CA803F023F85022D6
:100BD000E849503128A803F01DF85022E549A0311A
:100BE00014A803F017F85022E249F031684603F0E8
:100BF00011F8E14800780B2812D1002408E03CA944
:100C000001EB44122107080E002101F025F8641CB5
:100C1000022CF4DB4CAA0021202000F0FDFF11E0A3
:100C2000002408E03CA901EB44122107080E002132
:100C300000F0D4FF641C022CF4DB4CAA002120201D
:100C400000F0AEFFCC4800780C2812D1002408E058
:100C500028A901EB44122107080E102100F0FCFF27
:100C6000641C022CF4DB38AA1021202000F0D4FFF1
:100C700011E0002408E028A901EB44122107080E26
:100C8000102100F0ABFF641C022CF4DB38AA102109
:100C9000202000F085FFB84800780D2812D10024EC
:100CA00008E014A901EB44122107080E202100F0EE
:100CB000D3FF641C022CF4DB24AA2021084600F098
:100CC000ABFF11E0002408E014A901EB4412210756
:100CD000080E202100F082FF641C022CF4DB24AA01
:100CE0002021084600F05CFFA34800780E2812D1AE
:100CF000002408E0694601EB44122107080E302168
:100D000000F0AAFF641C022CF4DB10AA3021202082
:100D100000F082FF11E0002408E0694601EB441274
:100D20002107080E302100F059FF641C022CF4DB6F
:100D300010AA3021202000F033FF50B010BD30B594
:100D400099B08EA1D1E90023D1E90201CDE91523A3
:100D5000CDE917018DA3D3E90020D3E9021312AC2A
:100D60000BC4119240228DA101A802F053FF8248CA
:100D7000007807281CD1994800780A2190FBF1F0EF
:100D8000974901EB00152A460121202000F044FF7D
:100D9000924800780A2190FBF1F201FB1200904981
:100DA00001EB00152A460121282000F035FF1BE049
:100DB0008A4800780A2190FBF1F0894901EB00157F
:100DC0002A460121202000F0EBFE844800780A2109
:100DD00090FBF1F201FB1200814901EB00152A465C
:100DE0000121282000F0DCFE6348007808281CD18F
:100DF0007C4800780A2190FBF1F0794901EB00155D
:100E00002A460121382000F007FF764800780A21A1
:100E100090FBF1F201FB1200714901EB00152A462B
:100E20000121402000F0F8FE1BE06E4800780A2106
:100E300090FBF1F06A4901EB00152A4601213820A8
:100E400000F0AEFE674800780A2190FBF1F201FB4A
:100E50001200634901EB00152A460121402000F0F1
:100E60009FFE4548007809281CD15F4800780A2178
:100E700090FBF1F05A4901EB00152A460121502060
:100E800000F0CAFE584800780A2190FBF1F201FBFD
:100E90001200534901EB00152A460121582000F0A9
:100EA000BBFE1BE0504800780A2190FBF1F04C4952
:100EB00001EB00152A460121502000F071FE4A483E
:100EC00000780A2190FBF1F201FB1200444901EB8A
:100ED00000152A460121582000F062FE15AA0121C2
:100EE000302000F05DFE11AA0121482000F058FEDC
:100EF000214800780A280ED1002409E001A901EB5D
:100F00004412E11C0907080E202100F0A5FE641C14
:100F1000022CF3DB0DE0002409E001A901EB4412EF
:100F2000E11C0907080E202100F058FE641C022C69
:100F3000F3DB19B030BD30B5D9B010A3D3E901212E
:100F40001868DB6858935692579155900FA30FCBB2
:100F500051AC0FC4402225A141A802F05BFE402203
:100F600032A131A802F056FE40227FE0200100208D
:100F7000240100201C4F00080100002000006060D8
:100F800000000000000060600000000000000000A1
:100F900000000000000000000000C0C0100C04248D
:100FA000242425262424242404140C0000818141B7
:100FB000310F0101017F818181F100000000F8887B
:100FC0008888880808FF08090AC8080080601F0090
:100FD00010201F80402116182641F800080000202C
:100FE00054420008090000200A000020101010FFE1
:100FF000109004040404FC04040404000444827FEC
:101000000100000040807F000000000000FC24245C
:10101000FC0008E80808FF0808E80800003F111174
:101020003F00000302023F42424770008060F80721
:101030000004745455565454740400000000FF001A
:1010400003010545857D050505010300000000F04D
:10105000000000FF40404040400000004040407F12
:101060004040407F4040404040404000D0A121A847
:1010700002F0D0FD4022DEA111A802F0CBFD4022FB
:10108000EBA101A802F0C6FDF94800780A2190FB07
:10109000F1F0F84901EB00152A460121202000F06B
:1010A0007FFDF34800780A2190FBF1F201FB12006A
:1010B000F04901EB00152A460121282000F070FDBF
:1010C00055AA0121302000F06BFDEB4800780A2181
:1010D00090FBF1F0E74901EB00152A460121382089
:1010E00000F05EFDE44800780A2190FBF1F201FB7C
:1010F0001200E04901EB00152A460121402000F0D2
:101100004FFD51AA0121482000F04AFDDB4800783C
:101110000A2190FBF1F0D74901EB00152A46012185
:10112000502000F03DFDD54800780A2190FBF1F2F7
:1011300001FB1200CF4901EB00152A46012158207E
:1011400000F02EFDCE480078042812D100240DE0D6
:10115000CC49097809B941A900E031A901EB441251
:101160002107080E202100F077FD641C022CEFDB24
:1011700011E000240DE0C349097809B941A900E054
:1011800031A901EB44122107080E202100F026FDB1
:10119000641C022CEFDBBA480078052814D1002427
:1011A0000FE0B9490978022901D121A900E011A96C
:1011B00001EB4412E11C0907080E202100F04CFD50
:1011C000641C022CEDDB13E000240FE0AE4909782B
:1011D000022901D121A900E011A901EB4412E11C6F
:1011E0000907080E202100F0F9FC641C022CEDDB3D
:1011F000A348007806280ED1002409E001A901EBDC
:101200004412A11D0907080E202100F025FD641CD1
:10121000022CF3DB0DE0002409E001A901EB4412EC
:10122000A11D0907080E202100F0D8FC641C022C27
:10123000F3DB59B030BD10B5ADF5307DC022934918
:1012400080A802F0E7FCC0229049C03150A802F00B
:10125000E1FCC0228E4920A802F0DCFC80228C49EF
:10126000C031684602F0D6FC8548007868B9002491
:1012700008E080A901EB44122107080E002100F0CC
:10128000EBFC641C062CF4DB0CE0002408E080A9D5
:1012900001EB44122107080E002100F09FFC641CA2
:1012A000062CF4DB7648007801280DD1002408E0F4
:1012B00050A901EB44122107080E102100F0CCFCCC
:1012C000641C062CF4DB0CE0002408E050A901EBC0
:1012D00044122107080E102100F080FC641C062C2B
:1012E000F4DB6748007802280DD1002408E020A92B
:1012F00001EB44122107080E202100F0ADFC641C14
:10130000062CF4DB0CE0002408E020A901EB4412D9
:101310002107080E202100F061FC641C062CF4DB80
:101320005748007803280ED1002409E0694601EBF4
:101330004412611C0907080E302100F08DFC641C6A
:10134000042CF3DB0DE0002409E0694601EB4412B4
:10135000611C0907080E302100F040FC641C042CBD
:10136000F3DB0DF5307D10BD10B54A4800784A49D1
:101370000978884205D1494800784149097888426E
:1013800009D000F0D3FB44480078424908703C483B
:1013900000784249087040480078052806D2DFE806
:1013A00000F0037F82858800FFF745FF84E000009E
:1013B000829A9693FA5252807E121212F111100004
:1013C000000100FE93929392929292FE030000001D
:1013D0008060F80700047454555654547404000097
:1013E0000000FF0003010545857D0505050103009B
:1013F0002030AC631000FE485040FF4050480000D1
:101400002267221212007F4442417F414244400041
:101410002030AC6320182024A4243FA424A460001E
:10142000226722121212888A4C29180F1828C80025
:10143000404042CC0000FF4949C949497F80000033
:101440000040201F20405F48444041424558400032
:1014500000007C40404040FF40404040FC00000015
:10146000007C40404040407F4040404040FC000005
:101470000B000020544200080C0000200D0000204A
:101480000100002002000020030000205C50000842
:10149000DC51000828010020000000202901002064
:1014A000FFF749FD08E0FFF74AFC05E0FFF788FB7E
:1014B00002E0FFF78DFA00BF00BF10BD00F078F921
:1014C00000F031F900F0E6F900F00AFA00F0A0FAB5
:1014D00000F000FC00F0BAF900F00CF9042000F074
:1014E00084F9022000F090F900202749088040F29A
:1014F00003102649088000F019FB002024490870D9
:101500000EE0FFF731FFFFF710FA00F02FF938B1C6
:101510001420FEF7A9FE00F029F908B1FEF7B3FE8A
:10152000EFE770B52DED068B05460C4601201849F6
:101530000870002014490880284602F073FD41EC31
:101540001A0B9FED140B53EC102B02F07FFD41ECB6
:10155000190B53EC192B9FED110B51EC100B02F0F2
:10156000C5FB41EC180B02F019FD08490880204624
:10157000FEF77AFE0020064908700A20FEF774FE86
:10158000BDEC068B70BD00003E0100203C01002038
:1015900011000020710669484864B63F0000000051
:1015A0000088C34010B54FF4807002F0ADF918B157
:1015B0004FF4807002F0B3F910BD10B53E480068DA
:1015C000401C3D4908600121880701F054FB0028B8
:1015D0004ED03A480078002846D039480078002894
:1015E00042D138480078002805DD36480078401E92
:1015F0003449087038E034480078002808DD324863
:101600000078401E3049087063202E4908702BE096
:101610002E48007800280BDD2C480078401E2B490E
:1016200008703B20284908706320264908701BE099
:101630000020224908700520244908700020224912
:10164000087020490870224908700220214908705A
:1016500000201B49087004201F49087000201F4902
:10166000088001201E4908700121880701F000FB55
:1016700010BD10B501211B4801F0FDFA012819D158
:101680001948007890B11648007878B1174800885A
:10169000401C164908800846008815490988884278
:1016A00004DD00201149088000F037FB01210D48BE
:1016B00001F0DEFA10BD0000040000200E00002042
:1016C0000F0000200D0000200C0000200B00002067
:1016D0000200002003000020010000201400002070
:1016E0001200002000040040110000203E010020F4
:1016F0003C0100201CB50121880301F027FF0821CF
:10170000084602F026F94FF48070009000208DF812
:1017100004000C208DF8050001208DF806006846B5
:1017200002F08CF81CBD1CB501214FF4827001F051
:10173000B3FE00208DF804008DF8070002208DF81C
:101740000500C00100906946174801F007FC4FF4FE
:10175000005000906946154801F000FC4FF400600D
:1017600000906946104801F0F9FB1CBD2DE9F041DD
:1017700000274FF480710C4801F052FC04464FF4EE
:1017800000510A4801F04CFC05464FF40061064840
:1017900001F046FC064604B9012705B9022706B93F
:1017A00003273846BDE8F0810020024000080240CF
:1017B0001CB50121242001F06FFE01208DF80400EA
:1017C00000208DF806008DF8070002208DF8050036
:1017D0008020009069461B4801F0C0FB0420009067
:1017E0006946194801F0BAFB1CBD10B50446022C2D
:1017F00003D18021134801F02FFC042C03D10421D4
:10180000114801F029FC10BD10B50446022C03D18B
:1018100080210C4801F01EFC042C03D104210A484D
:1018200001F018FC10BD10B50446022C03D1802134
:10183000044801F01AFC042C03D10421024801F0F1
:1018400014FC10BD001402400008024008B54FF41B
:10185000C06001F075FF1C208DF8000000208DF89D
:10186000010003208DF8020001208DF80300684676
:1018700001F06BFF1D208DF8000000208DF80100A5
:101880008DF8020001208DF80300684601F05DFF2D
:1018900008BD00000EB500214FF0804000F0BCFDF7
:1018A0000121084601F041FE6420019042F2CF0080
:1018B000ADF800000020ADF8020069464FF080400E
:1018C00000F021FD01221146900701F0BDF9012130
:1018D000880701F0CDF90121880700F09DFD0EBDBC
:1018E0000EB50021104800F097FD0121022001F003
:1018F0001CFE012001905320ADF800000020ADF83F
:1019000002006946084800F0FEFC01221146064824
:1019100001F09AF90121044801F0AAF901210248D5
:1019200000F07AFD0EBD000000040040014605E015
:10193000002001E0421CD0B21928FBDB0A00A1F113
:101940000103D9B2F4D1704710B504464FF40071C9
:10195000DE4801F081FB2146DD4800F0AEFB00BF10
:101960000221DB4800F0F2FB0028F9D00220FFF74B
:10197000DDFF10BD00B587B00121022001F08CFD14
:101980000121080301F0E2FD05220321CF4801F007
:1019900070FB05221146CD4801F06BFB02208DF84B
:1019A00018002820059005A9C84801F0D7FA0120A1
:1019B0008DF8180000208DF81A004FF41070059073
:1019C00005A9C24801F0CAFA0020ADF800004FF4A2
:1019D0008270ADF802000020ADF804000220ADF8DE
:1019E00006000120ADF808001820ADF80C0000201A
:1019F000ADF80E004FF40070ADF80A006946B44827
:101A000000F0E0F90121B24800F0D6FA07B000BDBD
:101A100010B5FFF7AFFF4021AC4801F01DFB0A20D5
:101A2000FFF784FF4021A94801F014FBAE20FFF727
:101A30008BFF0020FFF788FF1020FFF785FF402075
:101A4000FFF782FF8120FFF77FFFCF20FFF77CFFAA
:101A5000A120FFF779FFC820FFF776FFA620FFF748
:101A600073FFA820FFF770FF3F20FFF76DFFD32023
:101A7000FFF76AFF0020FFF767FFD520FFF764FF3D
:101A80008020FFF761FFD920FFF75EFFF120FFF70D
:101A90005BFFDA20FFF758FF1220FFF755FFDB202E
:101AA000FFF752FF4020FFF74FFF2020FFF74CFFCA
:101AB0000220FFF749FF8D20FFF746FF1420FFF7B4
:101AC00043FFA420FFF740FFA620FFF73DFFAF2014
:101AD000FFF73AFF10BD10B504464FF400717B4884
:101AE00001F0B8FA21467A4800F0E7FA00BF022177
:101AF000774800F02BFB0028F9D00220FFF716FFF3
:101B000010BD70B504460D46B02101EBE501C8B229
:101B1000FFF71AFF102141EA1410FFF715FF04F038
:101B20000F0141F00100FFF70FFF70BD70B50024F9
:101B300015E004F1B001C8B2FFF706FF0120FFF77E
:101B400003FF1020FFF700FF002504E00020FFF74F
:101B5000C2FF681CC5B2802DF8DB601CC4B2082C23
:101B6000E7DB70BD2DE9F04180460E4617460024A4
:101B700012E006EBC400C1B24046FFF7C2FF0025E9
:101B800006E005EBC401785CFFF7A5FF681CC5B251
:101B9000012DF6DB601CC4B2022CEADBBDE8F0814B
:101BA0002DE9F04180460E461746002412E006EB70
:101BB000C400C1B24046FFF7A4FF002506E005EBD4
:101BC000C401785CFFF787FF681CC5B2082DF6DBFF
:101BD000601CC4B2022CEADBBDE8F0812DE9F041C3
:101BE00080460E461746002412E006EBC400C1B240
:101BF0004046FFF786FF002506E005EB0411785C00
:101C0000FFF769FF681CC5B2102DF6DB601CC4B27B
:101C1000022CEADBBDE8F0812DE9F04180460E465A
:101C20001746002414E006EBC400C1B24046FFF79B
:101C300068FF002508E005EBC401795CC943C8B220
:101C4000FFF749FF681CC5B2082DF4DB601CC4B265
:101C5000022CE8DBBDE8F0812DE9F04180460E461C
:101C60001746002414E006EBC400C1B24046FFF75B
:101C700048FF002508E005EB0411795CC943C8B2B0
:101C8000FFF729FF681CC5B2102DF4DB601CC4B23D
:101C9000022CE8DBBDE8F08170B50646002411E0B7
:101CA000E006010E0020FFF72CFF002506E005EB03
:101CB000C411705CFFF70FFF681CC5B2802DF6DB06
:101CC000601CC4B2082CEBDB70BD000000040240B5
:101CD000003001401CB50121084601F0DDFB012068
:101CE0008DF8040000208DF8060002208DF8050014
:101CF000C001009069460C4801F030F91CBD10B5D8
:101D00004FF48071084801F0A7F910BD10B54FF4E9
:101D10008071054801F09EF910BD10B54FF4807137
:101D2000014801F0A2F910BD0000024010B50446C0
:101D3000FB48844208D10121801401F05CFC0021A1
:101D4000A01401F058FC3CE0F648844208D101217F
:101D5000001401F03FFC0021201401F03BFC30E0B6
:101D6000F148844208D10121C01301F033FC002165
:101D7000E01301F02FFC24E0EC48844208D101215B
:101D8000401401F038FC0021601401F034FC18E02C
:101D9000E748844209D10121080501F02CFC00210B
:101DA0004FF4801001F027FC0BE0E248844208D198
:101DB0000121480501F01FFC00214FF4001001F043
:101DC0001AFC10BD10B50022028802F441520B88A3
:101DD0004C8823438C882343CC8823430C8923439A
:101DE0004C8923438C892343CC8923431A430280A3
:101DF000838B4FF2FF74234083830B8A038210BDD1
:101E00002DE9F04F0025022300244FF001090022A4
:101E10000026002794469046B0F81CA04FF2400BD5
:101E20000AEA0B0AA0F81CA04FF0020AA0F820A0B2
:101E3000858BD1F808A0BAF1020F01D100BF82E072
:101E4000B1F804A0BAF1000F02D14FF0010901E08E
:101E50004FF00209DFF8E0A2DAF800A00AF4000A65
:101E6000BAF1000F09D0DFF8D0A2DAF800A02AF406
:101E7000000ADFF8C4B2CBF800A0DFF8BCA20AF178
:101E80007C0ADAF800A0CAF3881CDFF8ACA20AF1D9
:101E90007C0ADAF800A0CAF30278DFF89CA2AAF163
:101EA000040ADAF800A00AF03F07DFF88CA2AAF1D2
:101EB000040ADAF800A00AF4800ABAF5800F08D103
:101EC000DFF878A2BAFBF7FA0AFB0CFABAFBF8F6CD
:101ED00007E0DFF86CA2BAFBF7FA0AFB0CFABAFBD0
:101EE000F8F6B1F806A0BAF5007F0ED14FEA162A2F
:101EF0000AEB8A0A4FEA4A0AD1F808B0BAFBFBFAA1
:101F00000AF1050A1FFA8AF20FE04FEA491AB6FBF6
:101F1000FAFA0AEB8A0A4FEA4A0AD1F808B0BAFB81
:101F2000FBFA0AF1050A1FFA8AF24FF00A0AB2FB1D
:101F3000FAF202F00104A2EB040ACAF34F034FF6CF
:101F4000FF7A0AEA0424022B01DBFF2B01DD0223C6
:101F50000024B1F806A04AEA040A4AEA030AA0F8F3
:101F600020A0B1F804A0B1F80CB04AEA0B0AB1F80D
:101F700002B04AEA0B0AB1F800B04AEA0B0A4AF486
:101F8000006A4AEA05058583BDE8F08F00210180DB
:101F900041808180C180018141818181C18107218E
:101FA000018270470021018041808180C18002212F
:101FB000816000218181704721B1028842F0400296
:101FC000028004E002884FF6BF731A400280704717
:101FD00021B1828B42F48062828304E0828B4FF6CF
:101FE000FF331A408283704702884FF2FF731A4012
:101FF000028002880A4302807047B1F5804F04D105
:10200000028842F48042028004E002884BF6FF73AB
:102010001A40028070474FF6FF62914204D0028856
:1020200042F48072028004E002884FF6FF631A4097
:102030000280704721B1828842F00402828004E06D
:1020400082884FF6FB731A408280704721B18288E4
:1020500042F01002828004E082884FF6EF731A404B
:102060008280704730B500220023848B4FF24005F8
:102070002C40848302240484828B0C88B4F5007F76
:1020800001D00C8814B94FF4807308E00C88B4F5C3
:10209000407F03D00C88B4F5807F00D100238C886A
:1020A0008D892C434D882C431C4344F40064224307
:1020B000828330BD0146888970478181704721B194
:1020C000028842F40052028004E002884DF6FF7359
:1020D0001A4002807047018841F4805101807047A6
:1020E00002460020012901D0108B00E0908A704741
:1020F0000146088A70471AB183880B43838002E047
:1021000083888B438380704730B5002400230C11F3
:102110000125A540ABB2AAB185881D43858014E096
:102120000030014000380040003C004000340140D5
:1021300000500140005401400838024040787D01C1
:102140000024F40085889D43858030BD0246002030
:1021500013890B400BB1012000E000207047CA43F7
:1021600002817047F0B502460020002400230025BC
:1021700001F00F070126BE40B4B20B1101269E40AC
:10218000B3B2968806EA03051689264016B10DB14A
:10219000012000E00020F0BD10B5002201F00F0486
:1021A0000123A3409AB2D343038110BD10B5044666
:1021B000FE48844208D10121084601F01CFA0021A2
:1021C000012001F018FA9DE0B4F1804F08D10121FF
:1021D000084601F0FFF90021012001F0FBF991E030
:1021E000F348844208D10121022001F0F3F90021D3
:1021F000022001F0EFF985E0EE48844208D1012188
:10220000042001F0E7F90021042001F0E3F979E06E
:10221000E948844208D10121082001F0DBF90021BE
:10222000082001F0D7F96DE0E448844208D101218B
:10223000102001F0CFF90021102001F0CBF961E06E
:10224000DF48844208D10121202001F0C3F9002198
:10225000202001F0BFF955E0DA48844208D101217D
:10226000022001F0C8F90021022001F0C4F949E080
:10227000D548844209D10121080401F0BCF90021AC
:102280004FF4803001F0B7F93CE0D048844209D1E6
:102290000121480401F0AFF900214FF4003001F0B2
:1022A000AAF92FE0CA48844209D10121880401F02B
:1022B000A2F900214FF4802001F09DF922E0C548E9
:1022C000844208D10121402001F084F900214020FE
:1022D00001F080F916E0C048844208D10121802035
:1022E00001F078F90021802001F074F90AE0BB4880
:1022F000844207D10121801501F06CF90021A0155D
:1023000001F068F910BD00220288A84B98420ED057
:10231000AC4B98420BD0B0F1804F08D0A44B984200
:1023200005D0A44B984202D0A34B984204D14FF65B
:102330008F731A404B881A43A04B984207D0A04B8A
:10234000984204D04FF6FF431A400B891A4302808B
:102350004B68C3620B880385944B984202D0994B1B
:10236000984201D18B7A03860123838270474FF014
:10237000FF314160002101800181418081727047FD
:102380000185828270470A46002101884FF68F73CB
:10239000194011430180704741627047C162704724
:1023A0000146486A70470146088D704721B102888E
:1023B00042F00202028004E002884FF6FD731A40E8
:1023C0000280704721B1028842F00402028004E0DA
:1023D00002884FF6FB731A400280704721B10288D1
:1023E00042F08002028004E002884FF67F731A40B8
:1023F0000280704702884FF6F7731A400280028805
:102400000A430280704702884FF6FF431A40028059
:1024100002880A430280704721B1028842F001021B
:10242000028004E002884FF6FE731A400280704773
:1024300070B5002400220023058C4FF6FE7635404F
:102440000584028C8388048B4FF68F752C40B51E53
:102450002C400D882C43751E2A408D892A434D88B7
:102460002A43524DA84202D0564DA84213D14FF6EE
:10247000F7752A40CD892A434FF6FB752A408D888F
:102480002A434FF6FF652B404FF6FF552B400D8A30
:102490002B434D8A2B43838004838D6845630284DC
:1024A00070BD70B5002400220023058C4FF6EF7636
:1024B00035400584028C8388048B48F6FF752C40D8
:1024C0004FF6FF452C400D884FF6FF7606EA0525AE
:1024D0002C434FF6DF752A408D8906EA05152A43FD
:1024E0004D8806EA05152A43304DA84202D0354DE5
:1024F000A8421DD14FF67F752A40CD894FF6FF7651
:1025000006EA05152A434FF6BF752A408D8806EA6C
:1025100005152A434FF6FF352B404FF2FF752B4030
:102520000D8A06EA85052B434D8A06EA85052B436D
:10253000838004838D688563028470BD70B5002438
:1025400000220023058C4FF6FF6635400584028C7F
:102550008388848B4FF68F752C404FF6FC752C408A
:102560000D882C434FF6FF552A408D894FF6FF7694
:1025700006EA05252A434D8806EA05252A430B4D20
:10258000A84202D00F4DA84238D14FF2FF752A4021
:10259000CD894FF6FF7606EA05252A434FF6FF352B
:1025A0002A408D8806EA05252A4319E000000140EB
:1025B0000004004000080040000C004000100040F3
:1025C000001400400004014000400140004401406C
:1025D0000048014000180040001C0040002000405E
:1025E0004EF6FF752B404DF6FF752B400D8A06EA1F
:1025F00005152B434D8A06EA05152B4383808483FA
:102600008D68C563028470BD70B50022002300246C
:10261000058C4EF6FF7635400584038C8488828BCA
:1026200048F6FF752A404FF6FF452A400D884FF6C1
:10263000FF7606EA05252A434DF6FF752B408D8966
:1026400006EA05352B434D8806EA05352B43FE4D3A
:10265000A84202D0FD4DA84208D14BF6FF752C4090
:102660000D8A4FF6FF7606EA85152C438480828317
:102670008D680564038470BD0021018041808180E4
:1026800081608181C18101824182704770B50346BA
:10269000002000241846183001258D40ACB21D8C56
:1026A000A5431D8409B108290AD100EB6100056822
:1026B0004FF68F76354005600568154305600FE0DD
:1026C0000D1FC5F34E052844056848F6FF763540D2
:1026D000056005684FF6FF7606EA02263543056079
:1026E00070BD4163704781637047C1637047016487
:1026F00070470A460021018B4FF68F731940114332
:10270000018370470A460021018B48F6FF73194088
:102710004FF6FF7303EA02231943018370470A4609
:102720000021818B4FF68F731940114381837047CD
:102730000A460021818B48F6FF7319404FF6FF735C
:1027400003EA02231943818370470A460021018B63
:102750004FF6F77319401143018370470A46002171
:10276000018B4FF2FF7319404FF6FF7303EA022308
:102770001943018370470A460021818B4FF6F77396
:1027800019401143818370470A460021818B4FF223
:10279000FF7319404FF6FF7303EA02231943818345
:1027A00070470A460021018B4FF6FB731940114315
:1027B000018370470A460021018B4FF6FF33194011
:1027C0004FF6FF7303EA02231943018370470A4659
:1027D0000021818B4FF6FB731940114381837047B1
:1027E0000A460021818B4FF6FF3319404FF6FF73E5
:1027F00003EA02231943818370470A460021018BB3
:102800004FF67F7319401143018370470A46002138
:10281000018BC1F30E014FF6FF7303EA0223194344
:10282000018370470A460021818B4FF67F73194060
:102830001143818370470A460021818BC1F30E0149
:102840004FF6FF7303EA02231943818370470A4658
:102850000021018C4FF6FD7319401143018470472C
:102860000A460021018C4FF6F77319401143018489
:1028700070470A460021018C4FF6DF7319404FF66E
:10288000FF7303EA02131943018470470A460021CB
:10289000018C4FF67F7319404FF6FF7303EA021362
:1028A0001943018470470A460021018C4FF6FF53FB
:1028B00019404FF6FF7303EA02231943018470475E
:1028C0000A460021018C4FF2FF7319404FF6FF7347
:1028D00003EA02231943018470470A460021018C50
:1028E0004DF6FF7319404FF6FF7303EA02331943A5
:1028F0000184704730B5002301248C40A3B2048CBE
:102900009C430484048C02FA01F5ADB22C43048488
:1029100030BD30B5002304248C40A3B2048C9C430A
:102920000484048C02FA01F5ADB22C43048430BD5A
:10293000828B4FF2FF331A408283828B4FF6FF73F4
:1029400003EA01231A4382837047F0B50C4615460B
:10295000002100220026078C4EF6FF7C07EA0C07B8
:102960000784818B028C4FF6FF7707EA043640F626
:10297000FF4739404FF6FF7707EA052739434FF6FF
:10298000FF7707EA0337394345F6FF773A4046F4C5
:1029900080573A4381830284F0BD828B4FF6F373F4
:1029A0001A408283828B0A4382837047F0B50C46BB
:1029B0001546002100220026078C4FF6FF6C07EA1F
:1029C0000C070784818B028C4FF6FF7707EA0426F9
:1029D0004FF60C7739404FF6FF7707EA03172F437E
:1029E00039434FF2FF573A4046F480773A438183A8
:1029F0000284F0BD028B4FF2FF331A400283028B38
:102A00004FF6FF7303EA01231A4302837047F0B5C0
:102A10000C461546002100220026078C4FF6EF7C5D
:102A200007EA0C070784018B028C4FF6FF7707EA51
:102A3000041640F6FF4739404FF6FF7707EA0337A1
:102A400039434FF6FF7703E00000014000040140E6
:102A500007EA052739434FF65F773A4046F01007FB
:102A60003A4301830284F0BD028B4FF6F3731A40A0
:102A70000283028B0A4302837047F0B50C46154669
:102A800000210022068C4FF6FE773E400684018B23
:102A9000028C4FF60C7631407E1C06EA03162E435C
:102AA00031434FF6F576324044F00106324301835C
:102AB0000284F0BD70B505460C46208850B92389C4
:102AC000A28861882846FFF7D8FFE1882846FFF7EB
:102AD000CBFF25E0208804280AD12389A2886188B9
:102AE0002846FFF794FFE1882846FFF783FF17E0A9
:102AF000208808280AD12389A28861882846FFF700
:102B000055FFE1882846FFF748FF09E02389A2889E
:102B100061882846FFF719FFE1882846FFF708FF7C
:102B200070BD002101804180012181800021C18090
:102B3000018170472DE9F04105460C46002601272A
:102B4000608808B9022600E00026A088012801D18B
:102B5000022700E001272088A0B92389A288618884
:102B60002846FFF78AFFE1882846FFF77DFF238983
:102B70003A4631462846FFF74AFFE1882846FFF7E4
:102B800039FF13E02389A28861882846FFF73FFFB9
:102B9000E1882846FFF72EFF23893A46314628462A
:102BA000FFF76BFFE1882846FFF75EFFBDE8F08185
:102BB0000146486B70470146886B70470146C86BF9
:102BC00070470146086C70470A884B881A438B8807
:102BD0001A43CB881A430B891A434B891A438B89B2
:102BE0001A43A0F844207047002101804180818071
:102BF000C180018141818181704731B1B0F84420A9
:102C000042F40042A0F8442005E0B0F84420C2F3AA
:102C10000E02A0F84420704721B1828842F00402DD
:102C2000828004E082884FF6FB731A4082807047EE
:102C300021B1828842F00102828004E082884FF64E
:102C4000FE731A40828070471AB183890B438381D7
:102C500002E083898B4383817047818270470246FB
:102C60000020138A0B400BB1012000E000207047C8
:102C7000CA430282704730B5024600200023002478
:102C8000158A05EA0103958905EA010413B10CB11F
:102C9000012000E0002030BDCA430282704741EAB3
:102CA0000203A0F8483070471AB183890B4383812F
:102CB00002E083898B438381704721B1828842F08F
:102CC0000802828004E082884FF6F7731A408280FF
:102CD000704701894FF6F8721140018170470A462A
:102CE000002101894FF68F7319401143018170470C
:102CF00030B504460D4629462046FFF7F0FF2089EF
:102D000040F00700208130BD2DE9F04104460D461A
:102D100016461F46602D06D13B460122314620460D
:102D2000FFF775FE05E03B46012231462046FFF7DE
:102D3000A4FE29462046FFF7D2FF208940F0070075
:102D40002081BDE8F08130B50C4600210189C9B26F
:102D50004FF6FF7505EA03251543254329430181F5
:102D600030BD2DE9F04105460E4617469846002431
:102D700043463A4631462846FFF7E5FF2C894FF691
:102D8000F870044044F007044FF68F70044044F09C
:102D900070042C81BDE8F081F0B504460D4616465E
:102DA0001F463B46324629462046FFF7CCFF208986
:102DB00040F480402081F0BD82884FF68F731A4026
:102DC000828082880A438280704702894FF6F873B6
:102DD0001A40028102890A430281704702894FF634
:102DE0007F731A40028102890A4302817047F0B55D
:102DF0000C4615461E460021002200230189028B45
:102E0000038C4FF6F877394021434FF6FC473A40A0
:102E100040F201173A434FF6DD773B404FF6FF771C
:102E200007EA06172F433B43018102830384F0BD69
:102E300021B1828842F08002828004E082884FF6CD
:102E40007F731A4082807047A0F8501070470000CE
:102E500010B504469848844208D10121084600F084
:102E600086FB0021012000F082FB76E0934884423B
:102E700008D10121022000F07AFB0021022000F09D
:102E800076FB6AE08E48844208D10121042000F0DC
:102E90006EFB0021042000F06AFB5EE0894884425A
:102EA00008D10121082000F062FB0021082000F079
:102EB0005EFB52E08448844208D10121102000F0DA
:102EC00056FB0021102000F052FB46E07F48844270
:102ED00008D10121202000F04AFB0021202000F031
:102EE00046FB3AE07A48844208D10121402000F0B4
:102EF0003EFB0021402000F03AFB2EE07548844262
:102F000008D10121802000F032FB0021802000F058
:102F10002EFB22E07048844208D10121801500F088
:102F200026FB0021A01500F022FB16E06B4884422E
:102F300008D10121401500F01AFB0021601500F0B6
:102F400016FB0AE06648844207D10121001500F013
:102F50000EFB0021201500F00AFB10BDF0B50A465B
:102F600000210023002400BF3DE0012505FA01F304
:102F7000156805EA03049C4234D105684F00032616
:102F8000BE40B543056015794E00B540066835432F
:102F900005601579012D02D01579022D16D18568AD
:102FA0004F000326BE40B543856055794E00B540BD
:102FB000866835438560456801268E40B543456087
:102FC000456896798E40B6B235434560C5684F0076
:102FD0000326BE40B543C560D5794E00B540C668EE
:102FE0003543C560491C1029BFD3F0BD4FF6FF71B2
:102FF00001600021017141718171C171704708B593
:103000004FF480320092009A0A430092009AC26103
:10301000C161009AC261C2690092C269009208BD92
:103020000246002013690B400BB1012000E0002094
:1030300070470146086980B2704702460020536914
:103040000B400BB1012000E00020704701464869A9
:1030500080B2704701837047418370470AB1018392
:1030600000E0418370474161704742694A404261D4
:103070007047F0B5002300244D07ED0E02FA05F36A
:10308000CE1000F1200555F826504E07F70E0F26FA
:10309000BE40B543CF1000F1200646F82750CE10B1
:1030A00000F1200555F8265045EA0304CE1000F142
:1030B000200545F82640F0BD000002400004024013
:1030C00000080240000C02400010024000140240C0
:1030D00000180240001C0240002002400024024070
:1030E00000280240F948006840F00100F7490860F4
:1030F0000020F64908310860F4480068F4490840A7
:10310000F2490860F348091D0860F348EF4984312B
:103110000860F0481038091D0860EC48006820F489
:103120008020EA4908600020E8490C310860E7493E
:103130008C31086070470021E44A921C11701146DE
:103140000870704710B501460022002300204A1184
:10315000012A02D1DD4C236808E0022A03D1DB4CAE
:103160007034236802E0D94C7434236801F01F02E4
:10317000012494401C400CB1012000E0002010BD4F
:1031800038B5002000900024002500BF3120FFF753
:10319000D9FF05460098401C00900098B0F5A04F5C
:1031A00001D0002DF2D03120FFF7CCFF08B101246F
:1031B00000E00024204638BD01460020C34A1068C4
:1031C00020F0F80040EAC10010607047C349086071
:1031D00070470021BD4A703211701170012802D071
:1031E00004280AD104E00121B84A7032117005E0C8
:1031F0000521B64A7032117000E000BF00BF704771
:10320000B7490860704770B5049C41EA82150126F1
:10321000C6EB530645EA0645054345EA0465AB4E51
:10322000361D356070BDAD4908667047820142EABF
:103230000172A64B84331A607047A84988667047AC
:1032400010B5830143EA016343EA02739F4C88345B
:10325000236010BDA14908677047A049C864704742
:1032600002460020994B0833186820F0EC6042EACF
:1032700001031843954B083318607047024600203D
:10328000924B0833186820F0784042EA0103184353
:103290008E4B083318607047014600208B4A083275
:1032A000106820F00300084310607047874808301A
:1032B000006800F00C00704701460020834A083285
:1032C000106820F0F00008431060704701460020AD
:1032D0007E4A0832106820F4E050084310607047BE
:1032E00001460020794A0832106820F4604040EA24
:1032F000C10010607047F0B50021002200240225B3
:1033000000260223714F08373F6807F00C0121B1F6
:10331000042905D0082937D105E0724F076036E04F
:10332000714F076033E0694F3F1D3F68C7F3805618
:10333000664F3F1D3F6807F03F036EB16A4FB7FB12
:10334000F3F7DFF888C10CF1040CDCF800C0CCF313
:10335000881C07FB0CF40CE0624FB7FBF3F7DFF8B7
:103360006CC10CF1040CDCF800C0CCF3881C07FB2A
:103370000CF4564F3F1D3F68C7F301477F1C7D008B
:10338000B4FBF5F7076002E0564F076000BF00BFCF
:103390004E4F08373F6807F0F0010909534F7A5C38
:1033A0000768D7404760494F08373F6807F4E05146
:1033B000890A4E4F7A5C4768D7408760434F083789
:1033C0003F6807F46041490B484F7A5C4768D74033
:1033D000C760F0BD002100F44072B2F5407F0AD111
:1033E0003A4A0832116821F4F811414A0240114367
:1033F000364A08321160354A70321268C0F30B0346
:103400001A43324B70331A607047354944390860AB
:103410007047334940390860704736490860704743
:1034200001460020294A8C32106820F440100843DD
:103430001060704701460020244A8C32106820F446
:103440004000084310607047014600201F4A8C323C
:10345000106820F01F004A1E10431C4A8C32106076
:10346000704701460020194A8C32106820F4F85049
:103470004A1E40EA0220154A8C321060704701460D
:103480000020124A8C32106820F44030084310604B
:10349000704719490860704739B10C4A30321268D8
:1034A00002430A4B30331A6006E0084A3032126891
:1034B0008243064B30331A607047F9B1034A343205
:1034C00012680243014B34331A601CE0003802409A
:1034D000FFFFF6EA103000240030002000004742D1
:1034E000800E47420024F40040787D014001002016
:1034F000FFFCFF0F5C014742E01147428F4A126810
:1035000082438E4B1A60704739B18C4A121D126883
:1035100002438A4B1B1D1A6006E0884A121D12687E
:103520008243864B1B1D1A60704739B1834A0C32A7
:1035300012680243814B0C331A6006E07F4A0C325A
:10354000126882437D4B0C331A60704739B17B4A55
:10355000103212680243794B10331A6006E0774A42
:10356000103212688243754B10331A60704739B1BC
:10357000724A243A12680243704B243B1A6006E0F8
:103580006E4A243A126882436C4B243B1A6070479F
:1035900039B16A4A203A12680243684B203B1A60EC
:1035A00006E0664A203A12688243644B203B1A6068
:1035B000704739B1614A1C3A126802435F4B1C3BA9
:1035C0001A6006E05D4A1C3A126882435B4B1C3B62
:1035D0001A60704739B1594A143A12680243574B7E
:1035E000143B1A6006E0554A143A12688243534B62
:1035F000143B1A60704739B1504A103A12680243BE
:103600004E4B103B1A6006E04C4A103A1268824357
:103610004A4B103B1A60704739B1484A1C32126855
:103620000243464B1C331A6006E0444A1C321268BF
:103630008243424B1C331A60704739B13F4A2032F3
:10364000126802433D4B20331A6006E03B4A2032A9
:1036500012688243394B20331A60704739B1374AB8
:10366000243212680243354B24331A6006E0334A91
:10367000243212688243314B24331A60704739B1C7
:103680002E4A2C32126802432C4B2C331A6006E06F
:103690002A4A2C3212688243284B2C331A60704716
:1036A00039B1264A303212680243244B30331A6053
:1036B00006E0224A303212688243204B30331A60CF
:1036C0007047012808D11D493C31096841F00801C3
:1036D0001A4A3C32116007E018493C31096821F070
:1036E0000801164A3C321160704739B1134A273A33
:1036F00012780243114B273B1A7006E00F4A273A13
:10370000127882430D4B273B1A7070470B484030AC
:10371000006840F0807009494031086070470146F8
:103720000020064A283A12680A400AB1012000E047
:10373000002070470149263908707047343802402C
:1037400032490143324A1160704770B500210023AD
:103750000F22C4781CB32E4C246804F4E064C4F532
:10376000E064C4F30721C1F10404E3B20A414478E0
:103770009C40E1B28478144021430C07210E254C73
:1037800005786155047804F01F050124AC400578E4
:103790006D11AD0005F1E025C5F8004109E00478A0
:1037A00004F01F050124AC401B4D0678761145F846
:1037B000264070BD194A0A400243154B1B1F1A6070
:1037C000704739B1124A121D12680243104B1B1D7B
:1037D0001A6006E00E4A121D126882430C4B1B1D34
:1037E0001A607047042808D14FF0E021096941F0C0
:1037F00004014FF0E022116107E04FF0E021096978
:1038000021F004014FF0E022116170470000FA0539
:103810000CED00E000E400E080E100E080FFFF1F2D
:10382000002041490860091D0860091D0860091D44
:1038300008603E483C4914310860704700213A490D
:103840008279002A3AD00A46126803689A430B46E6
:103850001A600A1D126803689A430B1D1A600279E8
:1038600011440A6803681A430A602F4A0832126832
:1038700003689A432C4B08331A601A1D12680368B8
:103880009A43294B0C331A604279102A0ED11A1F21
:10389000126803681A43244B08331A601A1D126811
:1038A00003681A43204B0C331A600DE01E4942791D
:1038B00011440A6803681A430A6005E0027911445A
:1038C0000A6803689A430A60704700210160017129
:1038D0000C21417100218171704713491031096831
:1038E0000143114A103211607047014600200E4A10
:1038F000143212680A400AB1012000E0002070472B
:10390000094914310860704701460020064A143204
:1039100012680A400AB1012000E000207047024905
:103920001431086070470000003C0140FFFF7F0039
:1039300010B501218803FFF75EFE00214FF480409F
:10394000FFF759FE10BD1C49086070471B4908620B
:10395000704730B500228B071C0F0F2303FA04F2C7
:10396000154B08338C1053F824309343124C083411
:103970008D1044F8253023468C1053F824308C07E2
:10398000240F00FA04F423430B4C08348D1044F840
:10399000253030BD0949DC310860704708490860AE
:1039A0007047002004492031096801F4807109B191
:1039B000012000E00020704700380140000027424D
:1039C000000427420948804709480047FEE7FEE710
:1039D000FEE7FEE7FEE7FEE7FEE7FEE7FEE7FEE7BF
:1039E00004480549054A064B70470000E13A0008C3
:1039F00089010008C8010020C8070020C803002072
:103A0000C80300200CB500200190009076480068A3
:103A100040F480307449086000BF7348006800F4C7
:103A2000003000900198401C0190009818B901984E
:103A3000B0F5A04FF1D16C48006800F4003010B12F
:103A40000120009001E0002000900098012846D15C
:103A500065484030006840F080506349403108605C
:103A60006248006840F44040604908605E480830A1
:103A700000685D49083108600846006840F400406D
:103A800008600846006840F4A05008605848091FC4
:103A90000860081F006840F08070091F086000BFC0
:103AA0005148006800F000700028F9D040F205701D
:103AB000504908604C480830006820F003004A492B
:103AC000083108600846006840F00200086000BF46
:103AD00045480830006800F00C000828F8D10CBDFB
:103AE00010B54548006840F47000434908603E48FE
:103AF000006840F001003C49086000203A49083164
:103B00000860394800683D490840374908603C482A
:103B1000091D0860081F006820F48020091F086044
:103B2000002031490C310860FFF76CFF4FF0006056
:103B300031498039086010BD70B500200022022391
:103B400000240221284D08352D6805F00C0020B115
:103B5000042806D0082834D107E02A4D2A4E3560C3
:103B600033E02A4D284E35602FE01F4D2D1D2D6866
:103B7000C5F380541C4D2D1D2D6805F03F0154B137
:103B8000224DB5FBF1F5184E361D3668C6F3881682
:103B900005FB06F209E01B4DB5FBF1F5124E361D93
:103BA0003668C6F3881605FB06F20F4D2D1D2D68ED
:103BB000C5F301456D1C6B00B2FBF3F5124E356089
:103BC00003E0104D104E356000BF00BF064D0835B4
:103BD0002D68C5F303150E4E705D0B4D2D68C54065
:103BE000094E356070BD0000003802400070004092
:103BF00019544007003C024088ED00E0FFFFF6FE4C
:103C0000103000240024F4005001002040787D0191
:103C10005401002010B5203AC0F00B80B1E81850D4
:103C2000203AA0E81850B1E81850A0E81850BFF4A6
:103C3000F5AF5FEA027C24BFB1E81850A0E8185045
:103C400044BF18C918C0BDE810405FEA827C24BF99
:103C500051F8043B40F8043B08BF7047D20728BF27
:103C600031F8023B48BF11F8012B28BF20F8023B76
:103C700048BF00F8012B7047704770477047754682
:103C800000F028F8AE4605006946534620F00700CC
:103C9000854618B020B5FFF7A3FEBDE820404FF0E1
:103CA00000064FF000074FF000084FF0000B21F026
:103CB0000701AC46ACE8C009ACE8C009ACE8C009F3
:103CC000ACE8C0098D4670470446AFF3008020463B
:103CD000FCF7C3FA0048704764010020014918202E
:103CE000ABBEFEE726000200704700002DE9C04190
:103CF00030B4DFF8A0C23CEA111418BF3CEA131438
:103D000000F0EC8081EA03051CEA111444EAD57442
:103D100018BF1CEA131500F0C780A4EB05044FF090
:103D2000004545EAC12145EAC32341EA505143EA2F
:103D3000525304F17F74994204F500344FEAC020D5
:103D40004FEAC22208BF904200F09C804FEA136500
:103D50000FF24016765D4FEA134506FB05F7C7F1F3
:103D6000807706FB07F74FEAD737A7FB0368764251
:103D7000C8F58038A7FB06CE38BFA8F1010807FBBD
:103D800008E64FF0000EA6FB028CE6FB03CEDCF14A
:103D9000000CCEF1004E38BFAEF1010EA6FB0C5860
:103DA0004FF000074FF00005E6FB0E87A1FB08C6A9
:103DB000A0FB07CE16EB0E0645F10005E1FB0765FB
:103DC00015F1E04E7EBFA4F580345FEA46066D41F2
:103DD00016F1800745F100054FEA17274FEA0666FE
:103DE00047EA0567A6F1DE46B6F1805F4FEA152582
:103DF0001FD9384624F0010C05EBC471BCF1FE6FED
:103E000001EB0C1102D8F0BCBDE8008124425CBF7C
:103E100001F5801E9EEAC47F02D4F0BCBDE800819B
:103E2000244238D4F0BCA1F1C041BDE8004100F00B
:103E300005BA4FEAD22242EA43524FEAD323A7FB04
:103E400002864FEAD02040EA415007FB03661EEA93
:103E50000E0F4FEAD12105FB026658BFA6EB0056B4
:103E6000B6EB00564FEA520E4EEAC37E18EB0E0E2A
:103E700056EB530EBDD518EB02085E417F1C55F181
:103E80000005B6E74FF480154FF000074FF000062D
:103E90004FF00008ADE7F0BC4FF0000001F1C04169
:103EA00001F00041BDE8008111EA0C1F0CEA131576
:103EB00000D00CE013EA0C1F00F025804FF000004A
:103EC000F0BC81EA030101F00041BDE80081F0BCD3
:103ED00081EA0301BDE8004100F0B0B9F0BCBDE8E3
:103EE000004170B500F05CF9097EFC3E00F007B8B7
:103EF00081EA03014FF0000001F00041704781EAC0
:103F0000030100F09BB9F0BC4FF000002249BDE86E
:103F100000417047FFFDFBF9F7F5F4F2F0EEEDEB31
:103F2000E9E8E6E4E3E1E0DEDDDBDAD8D7D5D4D3B7
:103F3000D1D0CFCDCCCBCAC8C7C6C5C4C2C1C0BF03
:103F4000BEBDBCBBBAB9B8B7B6B5B4B3B2B1B0AF09
:103F5000AEADACABAAA9A8A8A7A6A5A4A3A3A2A1ED
:103F6000A09F9F9E9D9C9C9B9A99999897979695A8
:103F700095949393929191908F8F8E8E8D8C8C8B44
:103F80008B8A8989888887878685858484838382CC
:103F9000828181800000FF070000F87F4FEA115303
:103FA000A3F58063D3F11E03A8BFD3F1200C08DB77
:103FB0004FF0004242EAC12252EA505232FA03F074
:103FC000704709420BD4102BC4BF0020704703F583
:103FD000787CBCF1FF3F05D04FF0FF3070474FF0C9
:103FE0000000704770B500F0DBF800BF49922480F4
:103FF00000207047F0E710F0004248BF4042B0FA9E
:1040000080F310FA03F10AD0C3F11D0303F58063B6
:104010004FEA415002EB035202EBD12170474FF0BF
:1040200000007047B0FA80F310FA03F10AD0C3F130
:104030001D0303F580634FEA41504FEA035202EB40
:10404000D12170474FF0000070470000DFF848C1F1
:1040500070B51CEA111E1EBF1CEA13159EEA0C0F58
:1040600095EA0C0F00F06F8081EA030423EA4C13F9
:104070004EEAD47E21EA4C1141F4801143F48013BE
:10408000AE44A1FB024CA0FB0365AEF17F7E361966
:1040900055EB0C05A1FB034C4CF10003A0FB021CEB
:1040A00016EB0C06654153F10003094218BF46F0B8
:1040B000010613F4007F0BD14FEA03314FEA0530BC
:1040C000340341EA155140EA16506FF003020AE04A
:1040D0004FEAC3214FEAC520F40241EA555140EAB4
:1040E00056506FF0020202EB2E4201EB025585EAB8
:1040F000CE710AD05FEA440C18BF24F0004450F19E
:10410000000041F1000120EAD47040F2FE7C6245DB
:1041100000D270BDA84214BF4FF080444FF040441D
:10412000002E08BF0024BEF1806FA8BFA1F1C041DE
:10413000BDE8704080F282804FF0000001F1C04184
:1041400001F0004170479EEA0C0F0CEA131518BFEE
:1041500095EA0C0F06D04FF0000081EA030E0EF036
:10416000004170BD00F01CF88900013E00F007B866
:1041700000F009B84FEA430C5FEA5C5C08D081EAC2
:10418000030100F05BB84FEA410C5FEA5C5CF6D1DA
:104190004FF00000014970470000FF070000F87F62
:1041A0000EF1020E2EF0030E5EF8046B364205D4BB
:1041B000012A43EB030515F5001F12D8012841EB36
:1041C000010C1CF5001F0CD80ED14FEAD17C15F55F
:1041D000001F0CEB4C0C0CF1020C08BF4CEBD37C19
:1041E00004E04FF0080C01E04FEAD37C0CEB4C05E7
:1041F00026FA05F606F00706B6F1040C06D20EEB19
:10420000860CBDE870404CF0010C6047DFE80CF014
:10421000090B02024FF000414FF00000A1F5002110
:1042200070BD19461046012851EB010418BFD4F5A2
:10423000001484BF002001F0004170BD0808A0F503
:1042400000114FEA310170474FF04070E1EE100A63
:104250007047000000E0F0180818F0E0000F1F3071
:1042600020301F0F001010F8F80000000020203F41
:104270003F202000007078080888F8700030382C43
:10428000262331300030388888C87830001838202C
:1042900020311F0E0000C0E030F8F80000070724AE
:1042A000243F3F2400F8F88888880808001939213D
:1042B00020311F0E00E0F09888981800000F1F3181
:1042C00020311F0E00383808C8F838080000003FB9
:1042D0003F0000000070F8880888F870001C3E233A
:1042E00021233E1C00E0F0180818F0E000003133F4
:1042F00022331F0F000808F8F80808000020203FAC
:104300003F202000424242F2F29F9F92929F9FF2F2
:10431000F242622284E4660F2FE7C70424E7C7074E
:104320002FE8CE0E0000F0F0000000FFFF000000BC
:10433000F0F0000000003F3F2020203F3F202020E1
:104340007F7F000020202020202020FFFF20202031
:10435000202020208080C060301C0F03030F1C3001
:1043600060C0808040703197969091979690989C0D
:1043700017537030040404040444C4FE7E0705048B
:1043800004040404FCFEFFFFFEFCF8F0F0F8FCFE61
:10439000FFFFFEFC03070F1F3F7FFFFFFFFF7F3F75
:1043A0001F0F0703000000000000000000000000D5
:1043B00000000000000000000000000000000000FD
:1043C00000008080C0C0E0E0E0F0F0F0F8F8F8F81D
:1043D000FC7C7C7C7C7C7C3E3E3E3EBEFEFEBE3E4B
:1043E0003E3E3E3C7C7C7C7C7CFCF8F8F8F8F0F0AF
:1043F000F0E0E0E0C0C080800000000000000000AD
:1044000000000000000000000000000000000000AC
:10441000000000000000000000000000000000009C
:10442000000000000000000000000000000000008C
:104430000000000000000080C0C0E0F0F8FCFC7E3E
:104440003F3F1F0F0F070703030301010100000097
:10445000000000000000000080F8FFFFFFFFFFFFEA
:10446000F8800000000000000000000000000101D2
:1044700003030307070F0F1F3F3F7EFCFCF8F0E02C
:10448000E0C080000000000000000000000000000C
:10449000000000000000000000000000000000001C
:1044A000000000000000000000000000000000000C
:1044B000000080E0F8FCFEFF3F1F0F030301000037
:1044C00000000000000000000000000000000000EC
:1044D000000000000000E0FCFFFFFF3F07073FFF78
:1044E000FFFFFCE0000000000000000000000000F2
:1044F0000000000000000000000000000101030FA8
:104500001F3FFFFEFCF8E0800000000000000000FC
:10451000000000000000000000000000000000009B
:10452000000000000000000000000000000000008B
:10453000E0FEFFFFFF1F030000000000000000007E
:10454000000000000E1F3F3F7FFFFFFFFFFFDFDF88
:104550009F1F1F1F1F1F1F1F0F07010000000001CB
:10456000070F1F1F1F1F1F1F1F9FDFDFFFFFFFFF03
:10457000FF7F3F3F1F0E0000000000000000000012
:10458000000000031FFFFFFFFEF00000000000001E
:10459000000000000000000000000000000000001B
:1045A000000000000000000000000000000000000B
:1045B0001FFFFFFFFFE00000000000000000000000
:1045C00000000000000000000800010303070F1FA7
:1045D0001FFFFEFEFCF800000000000000000000CD
:1045E00000000000F8FCFEFEFF1F1F0F0703030181
:1045F00000000000000000000000000000000000BB
:1046000000000000E0FFFFFFFF3F0000000000008F
:10461000000000000000000000000000000000009A
:10462000000000000000000000000000000000008A
:104630000001071F7FFFFFFCF0E0C000000000004A
:10464000000000000000000000000000000080F0FA
:10465000FFFFFFFF1F81C0E0E0F0F8FCFCFCFCF86E
:10466000F0E0E0C0818FFFFFFFFFF080000000005E
:10467000000000000000000000000000000000C07A
:10468000E0F0FCFFFF7F3F0F010000000000000092
:10469000000000000000000000000000000000001A
:1046A000000000000000000000000000000000000A
:1046B00000000000000001070F1F1F3F7EFEFCF8F6
:1046C000F0F0E0C0C08080000000000000F8FFFFB4
:1046D000FFFF7F3F3F1F0F0F070301010000010194
:1046E0000307070F1F3F3F7FFFFFFFFFF80000009A
:1046F0000000008080C0C0E0E0F0F8FCFE7E3F1FBC
:104700001F0F070100000000000000000000000073
:104710000000000000000000000000000000000099
:104720000000000000000000000000000000000089
:104730000000000000000000000000000000000178
:10474000030307070F0F1F1F1F3F3E7E7C7C7D7DED
:10475000F9F8F8F8F8F0F0F0F0F0F0F0F0F0F0F030
:10476000F0F0F0F0F8F8F8F8F8F97D7D7C7C7E3E0A
:104770003F1F1F1F0F0F0707030301010000000069
:104780000000000000000000000000000000000029
:104790000000000000000000000000000000000019
:1047A00000000000FFFFFFFFFFFFFFFFFFFFFFFF15
:1047B000FFFFFFFFFFFFFFFFFFFFFFFFFFFFFFFF09
:1047C000FFFF7F7F3F3F1F1F1F0F0F0F07070707C9
:1047D00003838383838383C1C1C1C141010141C17B
:1047E000C1C1C1C3838383838303070707070F0FF7
:1047F0000F1F1F1F3F3F7F7FFFFFFFFFFFFFFFFFD9
:10480000FFFFFFFFFFFFFFFFFFFFFFFFFFFFFFFFB8
:10481000FFFFFFFFFFFFFFFFFFFFFFFFFFFFFFFFA8
:10482000FFFFFFFFFFFFFFFFFFFFFFFFFFFFFFFF98
:10483000FFFFFFFFFFFFFF7F3F3F1F0F07030381C6
:10484000C0C0E0F0F0F8F8FCFCFCFEFEFEFFFFFF4D
:10485000FFFFFFFFFFFFFFFF7F07000000000000DA
:10486000077FFFFFFFFFFFFFFFFFFFFFFFFFFEFED2
:10487000FCFCFCF8F8F0F0E0C0C0810303070F1F58
:104880001F3F7FFFFFFFFFFFFFFFFFFFFFFFFFFF58
:10489000FFFFFFFFFFFFFFFFFFFFFFFFFFFFFFFF28
:1048A000FFFFFFFFFFFFFFFFFFFFFFFFFFFFFFFF18
:1048B000FFFF7F1F07030100C0E0F0FCFCFEFFFFCD
:1048C000FFFFFFFFFFFFFFFFFFFFFFFFFFFFFFFFF8
:1048D000FFFFFFFFFFFF1F03000000C0F8F8C0004C
:1048E0000000031FFFFFFFFFFFFFFFFFFFFFFFFFB2
:1048F000FFFFFFFFFFFFFFFFFFFFFFFFFEFEFCF0DC
:10490000E0C0000103071F7FFFFFFFFFFFFFFFFF66
:10491000FFFFFFFFFFFFFFFFFFFFFFFFFFFFFFFFA7
:10492000FFFFFFFFFFFFFFFFFFFFFFFFFFFFFFFF97
:104930001F01000000E0FCFFFFFFFFFFFFFFFFFF84
:10494000FFFFFFFFF1E0C0C080000000000020205A
:1049500060E0E0E0E0E0E0E0F0F8FEFFFFFFFFFEF7
:10496000F8F0E0E0E0E0E0E0E0602020000000009F
:104970000080C0C0E0F1FFFFFFFFFFFFFFFFFFFF70
:10498000FFFFFFFCE0000000010FFFFFFFFFFFFF44
:10499000FFFFFFFFFFFFFFFFFFFFFFFFFFFFFFFF27
:1049A000FFFFFFFFFFFFFFFFFFFFFFFFFFFFFFFF17
:1049B000E0000000001FFFFFFFFFFFFFFFFFFFFF02
:1049C000FFFFFFFFFFFFFFFFFFFFFEFCFCF8F0E033
:1049D000E00001010307FFFFFFFFFFFFFFFFFFFFF5
:1049E000FFFFFFFF0703010100E0E0F0F8FCFCFE21
:1049F000FFFFFFFFFFFFFFFFFFFFFFFFFFFFFFFFC7
:104A0000FFFFFFFF1F00000000C0FFFFFFFFFFFFD1
:104A1000FFFFFFFFFFFFFFFFFFFFFFFFFFFFFFFFA6
:104A2000FFFFFFFFFFFFFFFFFFFFFFFFFFFFFFFF96
:104A3000FFFEF8E0800000030F1F3FFFFFFFFFFFB6
:104A4000FFFFFFFFFFFFFFFFFFFFFFFFFFFF7F0FE6
:104A500000000000E07E3F1F1F0F07030303030752
:104A60000F1F1F3F7E70000000000F7FFFFFFFFF42
:104A7000FFFFFFFFFFFFFFFFFFFFFFFFFFFFFF3F06
:104A80001F0F03000080C0F0FEFFFFFFFFFFFFFFCE
:104A9000FFFFFFFFFFFFFFFFFFFFFFFFFFFFFFFF26
:104AA000FFFFFFFFFFFFFFFFFFFFFFFFFFFFFFFF16
:104AB000FFFFFFFFFFFFFEF8F0E0E0C0810103070A
:104AC0000F0F1F3F3F7F7FFFFFFFFFFFFF0700002C
:104AD000000080C0C0E0F0F0F8FCFEFEFFFFFEFE2C
:104AE000FCF8F8F0E0C0C0800000000007FFFFFF06
:104AF000FFFFFF7F7F3F3F1F1F0F07030181C0E0C4
:104B0000E0F0F8FEFFFFFFFFFFFFFFFFFFFFFFFFEB
:104B1000FFFFFFFFFFFFFFFFFFFFFFFFFFFFFFFFA5
:104B2000FFFFFFFFFFFFFFFFFFFFFFFFFFFFFFFF95
:104B3000FFFFFFFFFFFFFFFFFFFFFFFFFFFFFFFE86
:104B4000FCFCF8F8F0F0E0E0E0C0C18183838282F1
:104B500006070707070F0F0F0F0F0F0F0F0F0F0F8E
:104B60000F0F0F0F0707070707068282838381C194
:104B7000C0E0E0E0F0F0F8F8FCFCFEFEFFFFFFFF15
:104B8000FFFFFFFFFFFFFFFFFFFFFFFFFFFFFFFF35
:104B9000FFFFFFFFFFFFFFFFFFFFFFFFFFFFFFFF25
:104BA000FFFFFFFF00000000000000000000000009
:104BB000000000000000000080808080C0C0C0C0F5
:104BC000E0E0E0E0F0F0F0F0F8F8F8F87C7C7C7CD5
:104BD000F8F8F8F8F0F0F0F0E0E0E0E0C0C0C0C0B5
:104BE00080808080000000000000000000000000C5
:104BF000000000000000000000E0F0F0F8F8F8F815
:104C0000FC7C7C7C7E3E3E3E3F1F1F1F1F0F0F0F14
:104C10000F0707070703030303010101000000F06A
:104C2000FEFFFFFFFEF0800001010101030303030B
:104C30000707070F0F0F0F1F1F1F1F3F3E3E3E7E30
:104C40007C7C7CFCF8F8F8F8F0F0E00000FFFFFF57
:104C5000FFFF000000000000000000000000000056
:104C6000000000000000000080C0E0E0E0F0F0F094
:104C7000F8F8FF7F7F3F0F3F7F7FFFF8F8F0F0F0FD
:104C8000E0E0E0C080000000000000000000000044
:104C900000000000000000000000FFFFFFFFFF0019
:104CA00000FFFFFFFFFF0000000000000000000009
:104CB00000000000000000000000000001030707E2
:104CC000070F0F0F1F1FFFFEFEFCF0FCFEFEFF1F75
:104CD0001F0F0F0F0707070301000000000000006F
:104CE0000000000000000000000000000000FFFFC6
:104CF000FFFFFF0000070F0F1F1F1F1F3F3E3E3E1D
:104D00007E7C7C7CF8F8F8F8F0F0F0F0E0E0E0E091
:104D1000C0C0C0C0808080800000000F7FFFFFFF08
:104D20007F0F010080808080C0C0C0C0E0E0E0E074
:104D3000F0F0F0F0F8F8F8F87C7C7C7C3E3E3E3FEA
:104D40001F1F1F1F0F0F07000000000000000000C2
:104D5000000000000000000000000000010101014F
:104D600003030303070707070F0F0F0F1F1F1F1F63
:104D70003E3E3E3E1F1F1F1F0F0F0F0F0707070767
:104D80000303030301010101000000000000000013
:104D900000000000000000000000000080804020B3
:104DA000504844C344485020408080004040424A1C
:104DB0007242427F4242625A424040000000C05F5D
:104DC000555555555555555F4040000080601F04AE
:104DD000FD85450D152525554D848400807000FF07
:104DE000102810FC0340207F8886E00080601807B0
:104DF000083004050404FF04040404000002828255
:104E0000828282FE82828282820200004040404092
:104E10004040407F40404040404040002030AC6334
:104E2000300082621E020242827E0000226722124D
:104E3000120100FE4242424242FE000000808846CB
:104E40004020100F10102824428000008080484627
:104E50002010080708102846408080000002828247
:104E6000828282FE82828282820200004040404032
:104E70004040407F40404040404040002020FF20D4
:104E800024F4545454FF545556F404000000FF0019
:104E9000080B1969090B49897D0B0800008060F82F
:104EA000070008080808080808080000010000FFBB
:104EB0000010101010101010101010000000809E34
:104EC000929292929292929E800000008484444436
:104ED00024140C070C1424444484840040404242AF
:104EE000424242FE424242424240400080804020D4
:104EF000100C0300030C10204080800000F80C0B05
:104F000008F8A09E8888FF8888888000007F21217B
:104F1000217F00FC4444444444FC00004030EF2422
:104F2000244020100C23CC102040400001017F21A0
:104F3000110001091121D10D030000000414D45403
:104F4000545454DF54545454D414040080601F0249
:104F500002020203020202020300000000201010FD
:104F6000F0000000000808080F0808004030EF2497
:104F7000244020100C23CC102040400001017F2150
:104F8000110001091121D10D030000000414D454B3
:104F9000545454DF54545454D414040080601F02F9
:104FA00002020203020202020300000000101010BD
:104FB00090F00000000C0C0A090808004030EF24B3
:104FC000244020100C23CC102040400001017F2100
:104FD000110001091121D10D030000000414D45463
:104FE000545454DF54545454D414040080601F02A9
:104FF000020202030202020203000000001090906D
:105000009070000000080808090F06004030EF24E7
:10501000244020100C23CC102040400001017F21AF
:10502000110001091121D10D030000000414D45412
:10503000545454DF54545454D414040080601F0258
:105040000202020302020202030000000000C0206C
:1050500010F0000002030202020F0200404042CCA6
:1050600000808888FF8888FF888880000040201F93
:105070002040504C4340405F404040000000000052
:105080000001E21CE0000000000000008040201051
:105090000C03000000030C3040808000404042CCF4
:1050A0000040404040FF4040404040000000007F42
:1050B0002010000000FF00000000000000FC8484BD
:1050C00084FC001010101010FF101000003F101092
:1050D000103F0000010640807F000000000000FE3D
:1050E000929292FE929292FE0000000008080484C0
:1050F000621E010001FE0204040808000202E2220E
:1051000022F22E2222E22222E20202000000FF40CE
:10511000407F4949497F4040FF000000101010FFC8
:10512000109004040404FC04040404000444827F7A
:105130000100000040807F000000000000FC2424EB
:10514000FC0008E80808FF0808E80800003F111103
:105150003F00000302023F424247700000FC84848B
:1051600084FC001010101010FF101000003F1010F1
:10517000103F0000010640807F00000000F801069B
:1051800000F0121212F2020202FE000000FF000004
:10519000001F1111111F0040807F0000404042CCD1
:1051A0000040A09E8282829EA02020000000003F3E
:1051B000908840432C10284641808000001715D568
:1051C0005557557D555755D5151700004040407F20
:1051D000555555555555557F4040400080804020DD
:1051E000100804C304081020408080000000000064
:1051F000000000FF000000000000000000E000FFD1
:105200001020403C1010FF1010100000010000FFA3
:105210000000404242427F42424240004030EF2480
:10522000244020100C23CC102040400001017F219D
:10523000110001091121D10D030000000414D45400
:10524000545454DF54545454D414040080601F0246
:10525000020202030202020203000000404042CCAC
:1052600000504EC8487FC848484000000040201FFA
:1052700020504C4340404F50505C40001010FF10F5
:105280000082864A52A2524A8680800042827F0172
:105290000010121212FF1212121000000000101162
:1052A000161010F0101014131000000081814141FD
:1052B00021110D030D1121414181810040404242E5
:1052C000424242FE42424242424040000000000050
:1052D0000040807F0000000000000000008060F8B7
:1052E0000740300FF888888888080800010000FF10
:1052F00000000000FF0808080808000020202424FF
:105300002424BF642434282422202000100804020E
:10531000FF494949494949FF000000003C53000842
:105320000000002064010000C4010008E0530008F0
:10533000640100206406000020020008315202923D
:105340000522071E0601060188021AB80216880106
:10535000FFFFFA89021AF4103E4A014A015D221A3F
:105360005D0A1A262E1A060629161A2602C930E9DF
:10537000022940140601C412DC12A51AAF6A12AF4A
:105380001AC406C910091C4249446B0B020214FFDF
:10539000FF7D4902291829B6180A0B02B8019302A9
:1053A00093024BDC69101A4B0E2B0B02B289306949
:1053B0004EC91023FFFF22361B205604111D1E323A
:1053C000500101C11AFF01291163E8032D010203F5
:1053D00004041506070809847A030A69140000000A
:040000050800018965
:00000001FF
