:020000040800F2
:10000000C0060020A9350008B1350008B335000846
:10001000B5350008B7350008B93500080000000004
:10002000000000000000000000000000BB350008D8
:10003000BD35000800000000BF350008C1350008CC
:10004000C3350008C3350008C3350008C3350008B0
:10005000C3350008C3350008C3350008C3350008A0
:10006000C3350008C3350008C3350008C335000890
:10007000C3350008C3350008C3350008C335000880
:10008000C3350008C3350008C3350008C335000870
:10009000C3350008C3350008C33500080112000845
:1000A000C3350008C3350008C3350008C335000850
:1000B00017120008C5120008C3350008C335000830
:1000C000C3350008C3350008C3350008C335000830
:1000D000C3350008C3350008C3350008C335000820
:1000E000C3350008C3350008C3350008C335000810
:1000F000C3350008C3350008C3350008C335000800
:10010000C3350008C3350008C3350008C3350008EF
:10011000C3350008C3350008C3350008C3350008DF
:10012000C3350008C3350008C3350008C3350008CF
:10013000C3350008C3350008C3350008C3350008BF
:10014000C3350008C3350008C3350008C3350008AF
:10015000C3350008C3350008C3350008C33500089F
:10016000C3350008C3350008C3350008C33500088F
:10017000C3350008C3350008C3350008C33500087F
:10018000C3350008C335000800F002F800F03CF861
:100190000AA090E8000C82448344AAF10107DA45E2
:1001A00001D100F031F8AFF2090EBAE80F0013F0F8
:1001B000010F18BFFB1A43F001031847E447000082
:1001C00004480000103A24BF78C878C1FAD8520712
:1001D00024BF30C830C144BF04680C6070470000C1
:1001E0000023002400250026103A28BF78C1FBD840
:1001F000520728BF30C148BF0B6070471FB503F0DE
:1002000066FB1FBD10B510BD03F02BFB1146FFF7B9
:10021000F5FF00F09BFF03F049FB03B4FFF7F2FF8B
:1002200003BC03F04DFB0000014607E0002001E0A5
:10023000421C90B246F2A8129042F9DB0A00A1F1EA
:100240000101F3D1704710B54FF48071FC4802F002
:10025000D9FC002877D1FB48007800283AD0FA482A
:100260000078072804D0082810D009282AD11BE0DC
:10027000F6480078002805DDF4480078401EF34970
:10028000087002E03B20F14908701CE0F04800785B
:10029000002805DDEE480078401EED49087002E0B8
:1002A0003B20EB4908700EE0EA480078002805DDA5
:1002B000E8480078401EE749087002E06320E449FE
:1002C000087000E000BF00BF00BF01F05BF801282C
:1002D000FBD010BDE0480078052847D2DFE800F0E9
:1002E000030F27344000DD490978C81CC11700EB13
:1002F00091718910A0EB8101D84A117036E0D7487E
:100300000078401ED549087008460078052806D1B7
:10031000D348007818B908460078401E0870CF48C6
:100320000078042802DA0620CC4908701EE0CB4889
:100330000078401EC949087008460078072801DA8D
:100340000A20087012E012E0C4480078401EC34939
:100350000870084600780B2801DA0E20087005E0C6
:100360000020BD490870BD49087000BFBCE14FF4D2
:100370000051BC4802F046FC002877D1B148007813
:1003800090B3B1480078072804D0082810D0092875
:100390002BD11BE0AD4800783B2805DAAB4800784C
:1003A000401CAA49087002E00020A84908701DE01E
:1003B000A74800783B2805DAA5480078401CA449E6
:1003C000087002E00020A14908700FE0A148007801
:1003D000632805DA9F480078401C9E49087002E0B7
:1003E00000209A49087001E007E000BF00BF00BF8D
:1003F00000F0C8FF0228FBD06BE79748007805287B
:1004000047D2DFE800F0030F273440009349097812
:10041000481CC11700EB91718910A0EB81018F4A34
:10042000117036E08D480078401C8C4908700846F1
:100430000078052806D18A48007818B9084600785F
:10044000401C087085480078062802DD0420834996
:1004500008701EE081480078401C804908700846FA
:1004600000780A2801DD0720087012E018E07B48B8
:100470000078401C79490870084600780E2801DD94
:100480000B20087005E0002073490870734908705C
:1004900000BF00BF00BF00F075FF0228FBD023E1C2
:1004A0004FF40061664802F0ADFB0028F7D16548C3
:1004B000007840B100206349087000BF00F062FF7F
:1004C0000328FBD005E76448007805283CD2DFE824
:1004D00000F0033C95D7FF006048007830B1012858
:1004E00017D002281CD0032828D120E001205A4927
:1004F0000870042059490870544800785A49087017
:100500005348007859490870524800785849087093
:1005100014E00220504908700720504908700DE08F
:1005200003204D4908700B204C49087006E0042058
:10053000494908700F204949087000BF00BF00BF3B
:1005400000F020FF0328FBD0CDE0444800780428C9
:1005500004D0052829D0062849D138E04048007841
:1005600040B90120434908703D49087002204249C2
:10057000087019E000203F490870394908700220CE
:100580003D49087031480078374908703048007894
:10059000364908702F4800783549087000203749DF
:1005A000087004202D49087021E0334800780228A3
:1005B00006D101203149087003202F49087005E059
:1005C00000202E49087002202B4908700FE00020FF
:1005D000214908702149087026490870204908708F
:1005E00002202549087000202449087000BF00BF80
:1005F00000BF00F0C7FE0328FBD074E01748007866
:10060000072806D0082805D0092804D00A2810D1C8
:1006100009E000BF00BF01200A4908700F480078B8
:100620000949087005E000200B4908700B49087063
:1006300000BF00BF00BF00F0A5FE0328FBD052E0C2
:10064000002002400C0000200D00002004000020CB
:10065000050000200600002000000020010000200E
:1006600002000020000802400700002008000020CF
:10067000090000200A000020030000200B000020D9
:10068000FE4800780B2806D00C2808D00D280AD088
:100690000E2811D10CE0FA48FA4908600CE0FA483B
:1006A000F849086008E0F948F649086004E00FE0FE
:1006B000F748F449086000BF00BF0020F549087002
:1006C000EE49087000BF00F05DFE0328FBD00AE091
:1006D0000020F0490870E949087000BF00F052FEA0
:1006E0000328FBD000BF00BF00BF00F04BFE002876
:1006F000FBD100BFEDE510B5E2B06022E6494AA8A3
:1007000003F07AF86022E449603132A803F074F80B
:100710006022E149C0311AA803F06EF86022DF4977
:1007200002A803F069F800200090019001F01CF885
:10073000002417E0DA4800573030802803DCD8481E
:100740000057002805DAD748005D404240B2D5493D
:100750000855D348005DD349095D084440B2D049EB
:100760000855641C042CE5DB00245CE0CC490978C6
:10077000CC4A1278891A01EB0411C8B26A460021EA
:1007800001F00EF8C649097801EB0411C8B24AA974
:1007900001EB4412002101F03FF8C1494978C14AF8
:1007A0005278891A01EB0411C8B26A46102100F090
:1007B000F7FFBB49497801EB0411C8B232A901EB3C
:1007C0004412102101F028F8B5498978B54A927889
:1007D000891A01EB0411C8B26A46202100F0E0FF3B
:1007E000AF49897801EB0411C8B21AA901EB441290
:1007F000202101F011F8AA49C978AA4AD278891AA9
:1008000001EB0411C8B26A46302100F0C9FFA449C7
:10081000C97801EB0411C8B202A901EB44123021DE
:1008200000F0FAFF641C032CA0DB3220FFF7FCFC75
:1008300062B010BD10B5D0B05022984960313CA8CC
:1008400002F0DAFF50229549B03128A802F0D4FF17
:100850005022954914A802F0CFFF502292495031FE
:10086000684602F0C9FF854800780B2812D10024A1
:1008700008E03CA901EB44122107080E002101F019
:1008800009F8641C022CF4DB4CAA0021202000F0A3
:10089000E1FF11E0002408E03CA901EB441221072C
:1008A000080E002100F0B8FF641C022CF4DB4CAAF7
:1008B0000021202000F092FF704800780C2812D10F
:1008C000002408E028A901EB44122107080E10219A
:1008D00000F0E0FF641C022CF4DB38AA1021202079
:1008E00000F0B8FF11E0002408E028A901EB441251
:1008F0002107080E102100F08FFF641C022CF4DB8E
:1009000038AA1021202000F069FF5C4800780D28EB
:1009100012D1002408E014A901EB44122107080EAB
:10092000202100F0B7FF641C022CF4DB24AA202154
:10093000084600F08FFF11E0002408E014A901EB45
:1009400044122107080E202100F066FF641C022CCF
:10095000F4DB24AA2021084600F040FF4748007835
:100960000E2812D1002408E0694601EB4412210749
:10097000080E302100F08EFF641C022CF4DB10AA5C
:100980003021202000F066FF11E0002408E06946D5
:1009900001EB44122107080E302100F03DFF641CDA
:1009A000022CF4DB10AA3021202000F017FF50B0F9
:1009B00010BD30B599B03DA1D1E90023D1E90201C4
:1009C000CDE91523CDE917013CA3D3E90020D3E9F4
:1009D000021312AC0BC4119240223CA101A802F0F8
:1009E0000BFF2648007807281CD1484800780A21C8
:1009F00090FBF1F0464901EB00152A460121202029
:100A000000F028FF414800780A2190FBF1F201FB39
:100A100012003F4901EB00152A460121282000F071
:100A200019FF1BE0394800780A2190FBF1F03849A2
:100A300001EB00152A460121202000F0CFFE3348AB
:100A400000780A2190FBF1F201FB1200304901EB22
:100A500000152A460121282000F0C0FE0748007832
:100A600008286BD12B4800780A2190FBF1F0284927
:100A700001EB00152A46012138204DE0010000203D
:100A800014000020100000201A0000202000002088
:100A900026000020000000202044000840450008F7
:100AA0002C0000203000002040460008000060605C
:100AB0000000000000006060000000000000000076
:100AC00000000000000000000000C0C0100C042462
:100AD000242425262424242404140C00008181418C
:100AE000310F0101017F818181F100000000F88850
:100AF0008888880808FF08090AC8080080601F0065
:100B000010201F80402116182641F8000400002004
:100B1000D83800080500002000F09CFEF948007855
:100B20000A2190FBF1F201FB1200F74901EB0015DD
:100B30002A460121402000F08DFE1BE0F14800789C
:100B40000A2190FBF1F0F04901EB00152A46012142
:100B5000382000F043FEEB4800780A2190FBF1F2C8
:100B600001FB1200E84901EB00152A460121402053
:100B700000F034FEE548007809281CD1E4480078EC
:100B80000A2190FBF1F0E04901EB00152A46012112
:100B9000502000F05FFEDE4800780A2190FBF1F261
:100BA00001FB1200D84901EB00152A46012158200B
:100BB00000F050FE1BE0D64800780A2190FBF1F0CF
:100BC000D14901EB00152A460121502000F006FE14
:100BD000CF4800780A2190FBF1F201FB1200CA49CC
:100BE00001EB00152A460121582000F0F7FD15AA57
:100BF0000121302000F0F2FD11AA0121482000F06F
:100C0000EDFDC24800780A280ED1002409E001A9B0
:100C100001EB4412E11C0907080E202100F03AFE06
:100C2000641C022CF3DB0DE0002409E001A901EBB8
:100C30004412E11C0907080E202100F0EDFD641CA0
:100C4000022CF3DB19B030BD30B5D9B0AFF2A4132C
:100C5000D3E901211868DB68589356925791559053
:100C6000AFF2A8130FCB51AC0FC44022A9A141A8E9
:100C700002F0C2FD4022B7A131A802F0BDFD402222
:100C8000C4A121A802F0B8FD4022D2A111A802F00F
:100C9000B3FD4022DFA101A802F0AEFDED480078CF
:100CA0000A2190FBF1F0984901EB00152A46012139
:100CB000202000F093FDE74800780A2190FBF1F234
:100CC00001FB1200904901EB00152A460121282062
:100CD00000F084FD55AA0121302000F07FFDDE48A0
:100CE00000780A2190FBF1F0874901EB00152A46B4
:100CF0000121382000F072FDD74800780A2190FBCE
:100D0000F1F201FB1200804901EB00152A46012196
:100D1000402000F063FD51AA0121482000F05EFD53
:100D2000CE4800780A2190FBF1F0774901EB0015DD
:100D30002A460121502000F051FDC84800780A21C0
:100D400090FBF1F201FB12006F4901EB00152A46FE
:100D50000121582000F042FD6C480078042812D18F
:100D600000240DE0BE49097809B941A900E031A984
:100D700001EB44122107080E202100F08BFD641CBA
:100D8000022CEFDB11E000240DE0B549097809B928
:100D900041A900E031A901EB44122107080E2021EE
:100DA00000F03AFD641C022CEFDB5848007805285F
:100DB00014D100240FE0AB490978022901D121A9FF
:100DC00000E011A901EB4412E11C0907080E2021E3
:100DD00000F060FD641C022CEDDB13E000240FE04A
:100DE000A0490978022901D121A900E011A901EB4C
:100DF0004412E11C0907080E202100F00DFD641CBF
:100E0000022CEDDB4148007806280ED1002409E0D1
:100E100001A901EB4412A11D0907080E202100F0D1
:100E200039FD641C022CF3DB0DE0002409E001A96C
:100E300001EB4412A11D0907080E202100F0ECFC73
:100E4000641C022CF3DB59B030BD10B5ADF5307D1C
:100E5000C022854980A802F0CFFCC0228249C0315F
:100E600050A802F0C9FCC022804920A802F0C4FCAE
:100E700080227E49C031684602F0BEFC23480078DB
:100E800068B9002408E080A901EB44122107080E8C
:100E9000002100F0FFFC641C062CF4DB0CE00024B5
:100EA00008E080A901EB44122107080E002100F0A0
:100EB000B3FC641C062CF4DB1448007801280DD127
:100EC000002408E050A901EB44122107080E10216C
:100ED00000F0E0FC641C062CF4DB0CE0002408E0CD
:100EE00050A901EB44122107080E102100F094FCD8
:100EF000641C062CF4DB05480078022801D100248C
:100F0000BFE0C1E005000020D83800080100002043
:100F100006000020101010FF109004040404FC04CC
:100F2000040404000444827F0100000040807F002C
:100F30000000000000FC2424FC0008E80808FF086A
:100F400008E80800003F11113F00000302023F4281
:100F5000424770008060F80700047454555654549A
:100F6000740400000000FF0003010545857D0505B0
:100F700005010300000000F0000000FF4040404079
:100F8000400000004040407F4040407F40404040A3
:100F900040404000829A9693FA5252807E1212127A
:100FA000F1111000000100FE93929392929292FE32
:100FB000030000008060F807000474545556545430
:100FC000740400000000FF0003010545857D050550
:100FD000050103002030AC631000FE485040FF4084
:100FE000504800002267221212007F4442417F4194
:100FF000424440002030AC6320182024A4243FA4A5
:1010000024A46000226722121212888A4C29180F29
:101010001828C800404042CC0000FF4949C949494E
:101020007F8000000040201F20405F484440414234
:101030004558400000007C40404040FF4040404058
:10104000FC000000007C40404040407F4040404069
:1010500040FC0000070000200800002009000020DC
:101060000200002003000020E0460008604800085D
:1010700020A901EB44122107080E202100F00AFCF0
:10108000641C062CF4DB0CE0002408E020A901EB32
:1010900044122107080E202100F0BEFB641C062C20
:1010A000F4DB4F48007803280ED1002409E069469C
:1010B00001EB4412611C0907080E302100F0EAFB25
:1010C000641C042CF3DB0DE0002409E0694601EB0D
:1010D0004412611C0907080E302100F09DFB641CBE
:1010E000042CF3DB0DF5307D10BD10B53D480078C4
:1010F0003D490978884205D13C480078384909784B
:10110000884209D000F030FB374800783549087034
:10111000334800783549087033480078052813D2E1
:10112000DFE800F00306090C0F00FFF78EFE0BE06E
:10113000FFF78AFD08E0FFF73CFC05E0FFF77AFBCC
:1011400002E0FFF7D8FA00BF00BF10BD00F03CF985
:1011500000F0F5F800F0B8F9052000F0DBF900F038
:1011600075FA00F07FF900F0D1F8042000F049F999
:10117000022000F055F900F0F7FA15E0FFF7B5FF8F
:1011800000F000F938B11420FFF74EF800F0FAF83B
:1011900008B1FFF758F81648007828B115480078CC
:1011A00010B9022000F04BF9E8E7704700B512488B
:1011B000006898B100210BE00F4B1B68585CFFF7EB
:1011C000F4FF002200E0521C0C488242FBDB491C69
:1011D000094800684056401C0028EDD100BD0000C1
:1011E0000100002034000020000000203500002015
:1011F0000A0000200B0000201000002080841E0048
:1012000010B54FF4807002F071F918B14FF480708E
:1012100002F077F910BD10B50121880701F01DFB20
:1012200000284ED02D480078002846D02C48007861
:10123000002842D12B480078002805DD2948007895
:10124000401E2849087038E027480078002808DD4B
:1012500025480078401E2449087063202149087001
:101260002BE02248007800280BDD20480078401E43
:101270001E4908703B201C490870632019490870FA
:101280001BE000201549087019490870022019490F
:1012900008701948007815490870184800781249F4
:1012A0000870174800780F49087000200C49087032
:1012B000042014490870FFF779FF0121880701F025
:1012C000C9FA10BD10B501210F4801F0C6FA012876
:1012D00003D101210C4801F0BDFA10BD0A00002025
:1012E0000B0000200900002008000020070000205B
:1012F0000200002003000020040000200500002060
:101300000600002001000020000400401CB501215F
:10131000880301F00DFF0821084602F00CF94FF494
:101320008070009000208DF804000C208DF80500DE
:1013300001208DF80600684602F072F81CBD1CB54D
:1013400001214FF4827001F099FE00208DF8040015
:101350008DF8070002208DF80500C0010090694655
:10136000174801F0EDFB4FF4005000906946154816
:1013700001F0E6FB4FF4006000906946104801F070
:10138000DFFB1CBD2DE9F04100274FF480710C48B4
:1013900001F038FC04464FF400510A4801F032FCD9
:1013A00005464FF40061064801F02CFC064604B9DE
:1013B000012705B9022706B903273846BDE8F081A1
:1013C00000200240000802401CB50121242001F049
:1013D00055FE01208DF8040000208DF806008DF8E0
:1013E000070002208DF805008020009069461B4808
:1013F00001F0A6FB042000906946194801F0A0FB0B
:101400001CBD10B50446022C03D18021134801F005
:1014100015FC042C03D10421114801F00FFC10BD70
:1014200010B50446022C03D180210C4801F004FCC5
:10143000042C03D104210A4801F0FEFB10BD10B5B5
:101440000446022C03D18021044801F000FC042C46
:1014500003D10421024801F0FAFB10BD0014024040
:101460000008024008B54FF4C06001F05BFF172090
:101470008DF8000000208DF801008DF80200012099
:101480008DF80300684601F052FF1C208DF8000023
:1014900000208DF8010002208DF8020001208DF857
:1014A0000300684601F043FF1D208DF80000002076
:1014B0008DF8010003208DF8020001208DF8030053
:1014C000684601F034FF08BD0EB500214FF08040A2
:1014D00000F094FD0121084601F019FE64200190FE
:1014E00042F2CF00ADF800000020ADF802006946DE
:1014F0004FF0804000F0F9FC01221146900701F006
:1015000095F90121880701F0A5F90121880700F06C
:1015100075FD0EBD3EB504460021124800F06EFD7B
:101520000121022001F0F3FD4FF47A706043019035
:1015300042F2CF00ADF800000020ADF8020069468D
:10154000084800F0D2FC01221146064801F06EF96D
:101550000121044801F07EF90121024800F04EFD0E
:101560003EBD000000040040014605E0002001E00F
:10157000421CD0B21928FBDB0A00A1F10103D9B249
:10158000F4D1704710B504464FF40071DE4801F005
:1015900055FB2146DD4800F082FB00BF0221DB48FD
:1015A00000F0C6FB0028F9D00220FFF7DDFF10BDD8
:1015B00000B587B00121022001F060FD0121080380
:1015C00001F0B6FD05220321CF4801F044FB0522BE
:1015D0001146CD4801F03FFB02208DF8180028206D
:1015E000059005A9C84801F0ABFA01208DF8180054
:1015F00000208DF81A004FF41070059005A9C2481C
:1016000001F09EFA0020ADF800004FF48270ADF8B2
:1016100002000020ADF804000220ADF80600012011
:10162000ADF808001820ADF80C000020ADF80E0051
:101630004FF40070ADF80A006946B44800F0B4F900
:101640000121B24800F0AAFA07B000BD10B5FFF7BB
:10165000AFFF4021AC4801F0F1FA0A20FFF784FF08
:101660004021A94801F0E8FAAE20FFF78BFF0020E7
:10167000FFF788FF1020FFF785FF4020FFF782FF6C
:101680008120FFF77FFFCF20FFF77CFFA120FFF72E
:1016900079FFC820FFF776FFA620FFF773FFA82089
:1016A000FFF770FF3F20FFF76DFFD320FFF76AFFC2
:1016B0000020FFF767FFD520FFF764FF8020FFF7CA
:1016C00061FFD920FFF75EFFF120FFF75BFFDA2013
:1016D000FFF758FF1220FFF755FFDB20FFF752FFFF
:1016E0004020FFF74FFF2020FFF74CFF0220FFF7BD
:1016F00049FF8D20FFF746FF1420FFF743FFA4208A
:10170000FFF740FFA620FFF73DFFAF20FFF73AFFAE
:1017100010BD10B504464FF400717B4801F08CFAFF
:1017200021467A4800F0BBFA00BF0221774800F05A
:10173000FFFA0028F9D00220FFF716FF10BD70B5A0
:1017400004460D46B02101EBE501C8B2FFF71AFFD0
:10175000102141EA1410FFF715FF04F00F0141F0CA
:101760000100FFF70FFF70BD70B5002415E004F114
:10177000B001C8B2FFF706FF0120FFF703FF1020FA
:10178000FFF700FF002504E00020FFF7C2FF681C00
:10179000C5B2802DF8DB601CC4B2082CE7DB70BD3D
:1017A0002DE9F04180460E461746002412E006EB74
:1017B000C400C1B24046FFF7C2FF002506E005EBBA
:1017C000C401785CFFF7A5FF681CC5B2012DF6DBEC
:1017D000601CC4B2022CEADBBDE8F0812DE9F041C7
:1017E00080460E461746002412E006EBC400C1B244
:1017F0004046FFF7A4FF002506E005EBC401785C36
:10180000FFF787FF681CC5B2082DF6DB601CC4B269
:10181000022CEADBBDE8F0812DE9F04180460E465E
:101820001746002412E006EBC400C1B24046FFF7A1
:1018300086FF002506E005EB0411785CFFF769FFE1
:10184000681CC5B2102DF6DB601CC4B2022CEADBAA
:10185000BDE8F0812DE9F04180460E461746002490
:1018600014E006EBC400C1B24046FFF768FF002554
:1018700008E005EBC401795CC943C8B2FFF749FF32
:10188000681CC5B2082DF4DB601CC4B2022CE8DB76
:10189000BDE8F0812DE9F04180460E461746002450
:1018A00014E006EBC400C1B24046FFF748FF002534
:1018B00008E005EB0411795CC943C8B2FFF729FFC2
:1018C000681CC5B2102DF4DB601CC4B2022CE8DB2E
:1018D000BDE8F08170B50646002411E0E006010E77
:1018E0000020FFF72CFF002506E005EBC411705C1B
:1018F000FFF70FFF681CC5B2802DF6DB601CC4B279
:10190000082CEBDB70BD00000004024000300140F9
:1019100010B50446FB48844208D10121801401F02F
:101920005CFC0021A01401F058FC3CE0F648844225
:1019300008D10121001401F03FFC0021201401F026
:101940003BFC30E0F148844208D10121C01301F092
:1019500033FC0021E01301F02FFC24E0EC4884422A
:1019600008D10121401401F038FC0021601401F07D
:1019700034FC18E0E748844209D10121080501F050
:101980002CFC00214FF4801001F027FC0BE0E24812
:10199000844208D10121480501F01FFC00214FF4C9
:1019A000001001F01AFC10BD10B50022028802F4EC
:1019B00041520B884C8823438C882343CC88234393
:1019C0000C8923434C8923438C892343CC892343AB
:1019D0001A430280838B4FF2FF74234083830B8A68
:1019E000038210BD2DE9F04F0025022300244FF0A3
:1019F000010900220026002794469046B0F81CA05A
:101A00004FF2400B0AEA0B0AA0F81CA04FF0020AA2
:101A1000A0F820A0858BD1F808A0BAF1020F01D15F
:101A200000BF82E0B1F804A0BAF1000F02D14FF07C
:101A3000010901E04FF00209DFF8E0A2DAF800A0A6
:101A40000AF4000ABAF1000F09D0DFF8D0A2DAF8E0
:101A500000A02AF4000ADFF8C4B2CBF800A0DFF837
:101A6000BCA20AF17C0ADAF800A0CAF3881CDFF8ED
:101A7000ACA20AF17C0ADAF800A0CAF30278DFF817
:101A80009CA2AAF1040ADAF800A00AF03F07DFF8E6
:101A90008CA2AAF1040ADAF800A00AF4800ABAF5C6
:101AA000800F08D1DFF878A2BAFBF7FA0AFB0CFA2C
:101AB000BAFBF8F607E0DFF86CA2BAFBF7FA0AFB0C
:101AC0000CFABAFBF8F6B1F806A0BAF5007F0ED111
:101AD0004FEA162A0AEB8A0A4FEA4A0AD1F808B0F6
:101AE000BAFBFBFA0AF1050A1FFA8AF20FE04FEA85
:101AF000491AB6FBFAFA0AEB8A0A4FEA4A0AD1F8FF
:101B000008B0BAFBFBFA0AF1050A1FFA8AF24FF095
:101B10000A0AB2FBFAF202F00104A2EB040ACAF3C9
:101B20004F034FF6FF7A0AEA0424022B01DBFF2B56
:101B300001DD02230024B1F806A04AEA040A4AEAB9
:101B4000030AA0F820A0B1F804A0B1F80CB04AEA4A
:101B50000B0AB1F802B04AEA0B0AB1F800B04AEA3F
:101B60000B0A4AF4006A4AEA05058583BDE8F08F4E
:101B70000021018041808180C1800181418181817A
:101B8000C18107210182704700210180418081804D
:101B9000C1800221816000218181704721B10288CA
:101BA00042F04002028004E002884FF6BF731A4000
:101BB0000280704721B1828B42F48062828304E00C
:101BC000828B4FF6FF331A408283704702884FF2B0
:101BD000FF731A40028002880A4302807047B1F501
:101BE000804F04D1028842F48042028004E00288DF
:101BF0004BF6FF731A40028070474FF6FF62914226
:101C000004D0028842F48072028004E002884FF619
:101C1000FF631A400280704721B1828842F00402BB
:101C2000828004E082884FF6FB731A4082807047FE
:101C300021B1828842F01002828004E082884FF64F
:101C4000EF731A408280704730B500220023848BE6
:101C50004FF240052C40848302240484828B0C883C
:101C6000B4F5007F01D00C8814B94FF4807308E0FC
:101C70000C88B4F5407F03D00C88B4F5807F00D188
:101C800000238C888D892C434D882C431C4344F4BD
:101C900000642243828330BD014688897047818178
:101CA000704721B1028842F40052028004E00288A9
:101CB0004DF6FF731A4002807047018841F480514D
:101CC0000180704702460020012901D0108B00E0FE
:101CD000908A70470146088A70471AB183880B437F
:101CE000838002E083888B438380704730B5002473
:101CF00000230C110125A540ABB2AAB185881D4374
:101D0000858014E00030014000380040003C004075
:101D100000340140005001400054014008380240A6
:101D200040787D010024F40085889D43858030BD86
:101D30000246002013890B400BB1012000E0002077
:101D40007047CA4302817047F0B502460020002464
:101D50000023002501F00F070126BE40B4B20B118D
:101D600001269E40B3B2968806EA030516892640EE
:101D700016B10DB1012000E00020F0BD10B5002229
:101D800001F00F040123A3409AB2D343038110BD95
:101D900010B50446FE48844208D10121084601F0EE
:101DA0001CFA0021012001F018FA9DE0B4F1804FE7
:101DB00008D10121084601F0FFF90021012001F0BE
:101DC000FBF991E0F348844208D10121022001F09F
:101DD000F3F90021022001F0EFF985E0EE4884429A
:101DE00008D10121042001F0E7F90021042001F0CD
:101DF000E3F979E0E948844208D10121082001F0A3
:101E0000DBF90021082001F0D7F96DE0E4488442B5
:101E100008D10121102001F0CFF90021102001F09C
:101E2000CBF961E0DF48844208D10121202001F094
:101E3000C3F90021202001F0BFF955E0DA488442BF
:101E400008D10121022001F0C8F90021022001F08F
:101E5000C4F949E0D548844209D10121080401F0C0
:101E6000BCF900214FF4803001F0B7F93CE0D048D4
:101E7000844209D10121480401F0AFF900214FF457
:101E8000003001F0AAF92FE0CA48844209D10121AB
:101E9000880401F0A2F900214FF4802001F09DF99F
:101EA00022E0C548844208D10121402001F084F994
:101EB0000021402001F080F916E0C048844208D19A
:101EC0000121802001F078F90021802001F074F9CF
:101ED0000AE0BB48844207D10121801501F06CF96A
:101EE0000021A01501F068F910BD00220288A84B5E
:101EF00098420ED0AC4B98420BD0B0F1804F08D036
:101F0000A44B984205D0A44B984202D0A34B9842D0
:101F100004D14FF68F731A404B881A43A04B984256
:101F200007D0A04B984204D04FF6FF431A400B89CC
:101F30001A4302804B68C3620B880385944B984216
:101F400002D0994B984201D18B7A03860123838278
:101F500070474FF0FF3141600021018001814180D5
:101F6000817270470185828270470A46002101888C
:101F70004FF68F73194011430180704741627047DB
:101F8000C16270470146486A70470146088D704734
:101F900021B1028842F00202028004E002884FF67A
:101FA000FD731A400280704721B1028842F004029A
:101FB000028004E002884FF6FB731A4002807047EB
:101FC00021B1028842F08002028004E002884FF6CC
:101FD0007F731A400280704702884FF6F7731A40E9
:101FE000028002880A430280704702884FF6FF434E
:101FF0001A40028002880A430280704721B1028899
:1020000042F00102028004E002884FF6FE731A409B
:102010000280704770B5002400220023058C4FF623
:10202000FE7635400584028C8388048B4FF68F75CD
:102030002C40B51E2C400D882C43751E2A408D89DE
:102040002A434D882A43524DA84202D0564DA842F9
:1020500013D14FF6F7752A40CD892A434FF6FB7509
:102060002A408D882A434FF6FF652B404FF6FF55D7
:102070002B400D8A2B434D8A2B43838004838D682C
:102080004563028470BD70B5002400220023058CD6
:102090004FF6EF7635400584028C8388048B48F632
:1020A000FF752C404FF6FF452C400D884FF6FF760C
:1020B00006EA05252C434FF6DF752A408D8906EA8E
:1020C00005152A434D8806EA05152A43304DA842D6
:1020D00002D0354DA8421DD14FF67F752A40CD89DB
:1020E0004FF6FF7606EA05152A434FF6BF752A40DC
:1020F0008D8806EA05152A434FF6FF352B404FF22F
:10210000FF752B400D8A06EA85052B434D8A06EAAA
:1021100085052B43838004838D688563028470BDAD
:1021200070B5002400220023058C4FF6FF66354071
:102130000584028C8388848B4FF68F752C404FF674
:10214000FC752C400D882C434FF6FF552A408D8995
:102150004FF6FF7606EA05252A434D8806EA05254F
:102160002A430B4DA84202D00F4DA84238D14FF25E
:10217000FF752A40CD894FF6FF7606EA05252A43EA
:102180004FF6FF352A408D8806EA05252A4319E0D7
:10219000000001400004004000080040000C004026
:1021A00000100040001400400004014000400140C5
:1021B000004401400048014000180040001C00405D
:1021C000002000404EF6FF752B404DF6FF752B406A
:1021D0000D8A06EA05152B434D8A06EA05152B43A1
:1021E000838084838D68C563028470BD70B50022CE
:1021F00000230024058C4EF6FF7635400584038CC1
:102200008488828B48F6FF752A404FF6FF452A40A6
:102210000D884FF6FF7606EA05252A434DF6FF7531
:102220002B408D8906EA05352B434D8806EA053596
:102230002B43FE4DA84202D0FD4DA84208D14BF6DB
:10224000FF752C400D8A4FF6FF7606EA85152C4364
:10225000848082838D680564038470BD00210180C1
:102260004180818081608181C1810182418270478A
:1022700070B50346002000241846183001258D4013
:10228000ACB21D8CA5431D8409B108290AD100EB0D
:10229000610005684FF68F76354005600568154387
:1022A00005600FE00D1FC5F34E052844056848F68C
:1022B000FF763540056005684FF6FF7606EA022690
:1022C0003543056070BD4163704781637047C163EA
:1022D0007047016470470A460021018B4FF68F73E7
:1022E00019401143018370470A460021018B48F6CB
:1022F000FF7319404FF6FF7303EA0223194301836A
:1023000070470A460021818B4FF68F7319401143A5
:10231000818370470A460021818B48F6FF7319407C
:102320004FF6FF7303EA02231943818370470A467D
:102330000021018B4FF6F773194011430183704759
:102340000A460021018B4FF2FF7319404FF6FF73CD
:1023500003EA02231943018370470A460021818B57
:102360004FF6F77319401143818370470A460021E5
:10237000818B4FF2FF7319404FF6FF7303EA02237C
:102380001943818370470A460021018B4FF6FB7386
:1023900019401143018370470A460021018B4FF613
:1023A000FF3319404FF6FF7303EA022319430183F9
:1023B00070470A460021818B4FF6FB731940114389
:1023C000818370470A460021818B4FF6FF33194005
:1023D0004FF6FF7303EA02231943818370470A46CD
:1023E0000021018B4FF67F73194011430183704721
:1023F0000A460021018BC1F30E014FF6FF7303EA79
:1024000002231943018370470A460021818B4FF64E
:102410007F7319401143818370470A460021818BE5
:10242000C1F30E014FF6FF7303EA022319438183C0
:1024300070470A460021018C4FF6FD731940114385
:10244000018470470A460021018C4FF6F77319404A
:102450001143018470470A460021018C4FF6DF7357
:1024600019404FF6FF7303EA0213194301847047C2
:102470000A460021018C4FF67F7319404FF6FF7317
:1024800003EA02131943018470470A460021018CB4
:102490004FF6FF5319404FF6FF7303EA0223194327
:1024A000018470470A460021018C4FF2FF731940E6
:1024B0004FF6FF7303EA02231943018470470A466B
:1024C0000021018C4DF6FF7319404FF6FF7303EAAC
:1024D000023319430184704730B5002301248C4036
:1024E000A3B2048C9C430484048C02FA01F5ADB2BF
:1024F0002C43048430BD30B5002304248C40A3B2A7
:10250000048C9C430484048C02FA01F5ADB22C4384
:10251000048430BD828B4FF2FF331A408283828B5A
:102520004FF6FF7303EA01231A4382837047F0B525
:102530000C461546002100220026078C4EF6FF7C33
:1025400007EA0C070784818B028C4FF6FF7707EAB6
:10255000043640F6FF4739404FF6FF7707EA052774
:1025600039434FF6FF7707EA0337394345F6FF77DC
:102570003A4046F480573A4381830284F0BD828B0F
:102580004FF6F3731A408283828B0A43828370472B
:10259000F0B50C461546002100220026078C4FF6A8
:1025A000FF6C07EA0C070784818B028C4FF6FF77DC
:1025B00007EA04264FF60C7739404FF6FF7707EA13
:1025C00003172F4339434FF2FF573A4046F48077C1
:1025D0003A4381830284F0BD028B4FF2FF331A40ED
:1025E0000283028B4FF6FF7303EA01231A4302832F
:1025F0007047F0B50C461546002100220026078CD6
:102600004FF6EF7C07EA0C070784018B028C4FF62C
:10261000FF7707EA041640F6FF4739404FF6FF7789
:1026200007EA033739434FF6FF7703E00000014024
:102630000004014007EA052739434FF65F773A4027
:1026400046F010073A4301830284F0BD028B4FF637
:10265000F3731A400283028B0A4302837047F0B57A
:102660000C46154600210022068C4FF6FE773E40B0
:102670000684018B028C4FF60C7631407E1C06EAF4
:1026800003162E4331434FF6F576324044F00106EF
:10269000324301830284F0BD70B505460C462088A4
:1026A00050B92389A28861882846FFF7D8FFE188BE
:1026B0002846FFF7CBFF25E0208804280AD123898C
:1026C000A28861882846FFF794FFE1882846FFF733
:1026D00083FF17E0208808280AD12389A28861880F
:1026E0002846FFF755FFE1882846FFF748FF09E035
:1026F0002389A28861882846FFF719FFE1882846C8
:10270000FFF708FF70BD0021018041800121818019
:102710000021C180018170472DE9F04105460C463A
:1027200000260127608808B9022600E00026A0885C
:10273000012801D1022700E001272088A0B92389C0
:10274000A28861882846FFF78AFFE1882846FFF7BC
:102750007DFF23893A4631462846FFF74AFFE18844
:102760002846FFF739FF13E02389A28861882846AD
:10277000FFF73FFFE1882846FFF72EFF23893A46FF
:1027800031462846FFF76BFFE1882846FFF75EFFDA
:10279000BDE8F0810146486B70470146886B704781
:1027A0000146C86B70470146086C70470A884B8821
:1027B0001A438B881A43CB881A430B891A434B89D7
:1027C0001A438B891A43A0F84420704700210180E6
:1027D00041808180C180018141818181704731B117
:1027E000B0F8442042F40042A0F8442005E0B0F8DC
:1027F0004420C2F30E02A0F84420704721B1828821
:1028000042F00402828004E082884FF6FB731A4093
:102810008280704721B1828842F00102828004E008
:1028200082884FF6FE731A40828070471AB18389FE
:102830000B43838102E083898B43838170478182CC
:10284000704702460020138A0B400BB1012000E0C4
:1028500000207047CA430282704730B5024600200C
:1028600000230024158A05EA0103958905EA01047D
:1028700013B10CB1012000E0002030BDCA43028238
:10288000704741EA0203A0F8483070471AB18389C3
:102890000B43838102E083898B438381704721B19D
:1028A000828842F00802828004E082884FF6F77343
:1028B0001A408280704701894FF6F87211400181F9
:1028C00070470A46002101894FF68F731940114362
:1028D0000181704730B504460D4629462046FFF772
:1028E000F0FF208940F00700208130BD2DE9F04144
:1028F00004460D4616461F46602D06D13B46012272
:1029000031462046FFF775FE05E03B460122314681
:102910002046FFF7A4FE29462046FFF7D2FF208974
:1029200040F007002081BDE8F08130B50C46002161
:102930000189C9B24FF6FF7505EA03251543254302
:102940002943018130BD2DE9F04105460E46174669
:102950009846002443463A4631462846FFF7E5FFAD
:102960002C894FF6F870044044F007044FF68F703E
:10297000044044F070042C81BDE8F081F0B50446B9
:102980000D4616461F463B46324629462046FFF76F
:10299000CCFF208940F480402081F0BD82884FF632
:1029A0008F731A40828082880A438280704702892E
:1029B0004FF6F8731A40028102890A430281704778
:1029C00002894FF67F731A40028102890A4302810D
:1029D0007047F0B50C4615461E4600210022002324
:1029E0000189028B038C4FF6F877394021434FF66B
:1029F000FC473A4040F201173A434FF6DD773B403F
:102A00004FF6FF7707EA06172F433B430181028306
:102A10000384F0BD21B1828842F08002828004E00C
:102A200082884FF67F731A4082807047A0F850105A
:102A30007047000010B504469848844208D101212F
:102A4000084600F086FB0021012000F082FB76E0C2
:102A50009348844208D10121022000F07AFB002132
:102A6000022000F076FB6AE08E48844208D1012102
:102A7000042000F06EFB0021042000F06AFB5EE001
:102A80008948844208D10121082000F062FB00211E
:102A9000082000F05EFB52E08448844208D1012106
:102AA000102000F056FB0021102000F052FB46E001
:102AB0007F48844208D10121202000F04AFB0021F8
:102AC000202000F046FB3AE07A48844208D10121F8
:102AD000402000F03EFB0021402000F03AFB2EE0B9
:102AE0007548844208D10121802000F032FB00218A
:102AF000802000F02EFB22E07048844208D10121A2
:102B0000801500F026FB0021A01500F022FB16E046
:102B10006B48844208D10121401500F01AFB0021C6
:102B2000601500F016FB0AE06648844207D10121D7
:102B3000001500F00EFB0021201500F00AFB10BD6F
:102B4000F0B50A4600210023002400BF3DE0012526
:102B500005FA01F3156805EA03049C4234D10568BF
:102B60004F000326BE40B543056015794E00B540C1
:102B70000668354305601579012D02D01579022DBF
:102B800016D185684F000326BE40B5438560557950
:102B90004E00B540866835438560456801268E4005
:102BA000B5434560456896798E40B6B23543456079
:102BB000C5684F000326BE40B543C560D5794E00B9
:102BC000B540C6683543C560491C1029BFD3F0BD68
:102BD0004FF6FF7101600021017141718171C17176
:102BE000704708B54FF480320092009A0A43009271
:102BF000009AC261C161009AC261C2690092C26951
:102C0000009208BD0246002013690B400BB1012061
:102C100000E0002070470146086980B27047024614
:102C2000002053690B400BB1012000E000207047E9
:102C30000146486980B270470183704741837047FD
:102C40000AB1018300E041837047416170474269E6
:102C50004A4042617047F0B5002300244D07ED0E55
:102C600002FA05F3CE1000F1200555F826504E0764
:102C7000F70E0F26BE40B543CF1000F1200646F8F0
:102C80002750CE1000F1200555F8265045EA0304E0
:102C9000CE1000F1200545F82640F0BD00000240AE
:102CA0000004024000080240000C024000100240F4
:102CB0000014024000180240001C024000200240A4
:102CC0000024024000280240F948006840F001005A
:102CD000F74908600020F64908310860F4480068A8
:102CE000F4490840F2490860F348091D0860F348B8
:102CF000EF4984310860F0481038091D0860EC483D
:102D0000006820F48020EA4908600020E8490C317E
:102D10000860E7498C31086070470021E44A921C42
:102D2000117011460870704710B50146002200234B
:102D300000204A11012A02D1DD4C236808E0022A52
:102D400003D1DB4C7034236802E0D94C743423681F
:102D500001F01F02012494401C400CB1012000E04E
:102D6000002010BD38B5002000900024002500BFD1
:102D70003120FFF7D9FF05460098401C00900098CD
:102D8000B0F5A04F01D0002DF2D03120FFF7CCFFDD
:102D900008B1012400E00024204638BD014600208F
:102DA000C34A106820F0F80040EAC1001060704784
:102DB000C349086070470021BD4A7032117011701C
:102DC000012802D004280AD104E00121B84A703257
:102DD000117005E00521B64A7032117000E000BFA5
:102DE00000BF7047B7490860704770B5049C41EA5E
:102DF00082150126C6EB530645EA0645054345EA1A
:102E00000465AB4E361D356070BDAD490866704730
:102E1000820142EA0172A64B84331A607047A849C6
:102E20008866704710B5830143EA016343EA027381
:102E30009F4C8834236010BDA14908677047A049A2
:102E4000C864704702460020994B0833186820F088
:102E5000EC6042EA01031843954B08331860704751
:102E600002460020924B0833186820F0784042EA6E
:102E7000010318438E4B0833186070470146002049
:102E80008B4A0832106820F0030008431060704736
:102E900087480830006800F00C00704701460020A9
:102EA000834A0832106820F0F00008431060704731
:102EB000014600207E4A0832106820F4E0500843A2
:102EC0001060704701460020794A0832106820F4EB
:102ED000604040EAC10010607047F0B50021002258
:102EE0000024022500260223714F08373F6807F0AF
:102EF0000C0121B1042905D0082937D105E0724F12
:102F0000076036E0714F076033E0694F3F1D3F684F
:102F1000C7F38056664F3F1D3F6807F03F036EB111
:102F20006A4FB7FBF3F7DFF888C10CF1040CDCF84B
:102F300000C0CCF3881C07FB0CF40CE0624FB7FB1D
:102F4000F3F7DFF86CC10CF1040CDCF800C0CCF333
:102F5000881C07FB0CF4564F3F1D3F68C7F3014721
:102F60007F1C7D00B4FBF5F7076002E0564F076059
:102F700000BF00BF4E4F08373F6807F0F001090956
:102F8000534F7A5C0768D7404760494F08373F681E
:102F900007F4E051890A4E4F7A5C4768D740876052
:102FA000434F08373F6807F46041490B484F7A5C4C
:102FB0004768D740C760F0BD002100F44072B2F509
:102FC000407F0AD13A4A0832116821F4F811414A87
:102FD00002401143364A08321160354A7032126895
:102FE000C0F30B031A43324B70331A6070473549F4
:102FF00044390860704733494039086070473649A2
:103000000860704701460020294A8C32106820F47D
:10301000401008431060704701460020244A8C325B
:10302000106820F4400008431060704701460020FB
:103030001F4A8C32106820F01F004A1E10431C4AA1
:103040008C321060704701460020194A8C3210689B
:1030500020F4F8504A1E40EA0220154A8C321060D3
:10306000704701460020124A8C32106820F440302C
:1030700008431060704719490860704739B10C4A1D
:103080003032126802430A4B30331A6006E0084AB5
:10309000303212688243064B30331A607047F9B100
:1030A000034A343212680243014B34331A601CE085
:1030B00000380240FFFFF6EA103000240030002004
:1030C00000004742800E47420024F40040787D0112
:1030D00036000020FFFCFF0F5C014742E011474231
:1030E0008F4A126882438E4B1A60704739B18C4AFE
:1030F000121D126802438A4B1B1D1A6006E0884AA3
:10310000121D12688243864B1B1D1A60704739B12D
:10311000834A0C3212680243814B0C331A6006E07A
:103120007F4A0C32126882437D4B0C331A60704721
:1031300039B17B4A103212680243794B10331A605E
:1031400006E0774A103212688243754B10331A60DA
:10315000704739B1724A243A12680243704B243BDB
:103160001A6006E06E4A243A126882436C4B243B94
:103170001A60704739B16A4A203A12680243684BB4
:10318000203B1A6006E0664A203A12688243644B8C
:10319000203B1A60704739B1614A1C3A12680243F9
:1031A0005F4B1C3B1A6006E05D4A1C3A1268824382
:1031B0005B4B1C3B1A60704739B1594A143A12688C
:1031C0000243574B143B1A6006E0554A143A126802
:1031D0008243534B143B1A60704739B1504A103A3E
:1031E000126802434E4B103B1A6006E04C4A103AFC
:1031F000126882434A4B103B1A60704739B1484A03
:103200001C3212680243464B1C331A6006E0444AE3
:103210001C3212688243424B1C331A60704739B12A
:103220003F4A2032126802433D4B20331A6006E0C9
:103230003B4A203212688243394B20331A60704770
:1032400039B1374A243212680243354B24331A60AD
:1032500006E0334A243212688243314B24331A6029
:10326000704739B12E4A2C32126802432C4B2C3352
:103270001A6006E02A4A2C3212688243284B2C330B
:103280001A60704739B1264A303212680243244B23
:1032900030331A6006E0224A303212688243204BF3
:1032A00030331A607047012808D11D493C31096844
:1032B00041F008011A4A3C32116007E018493C31DC
:1032C000096821F00801164A3C321160704739B193
:1032D000134A273A12780243114B273B1A7006E033
:1032E0000F4A273A127882430D4B273B1A707047DA
:1032F0000B484030006840F0807009494031086058
:10330000704701460020064A283A12680A400AB16E
:10331000012000E0002070470149263908707047FD
:103320003438024032490143324A1160704770B567
:10333000002100230F22C4781CB32E4C246804F40F
:10334000E064C4F5E064C4F30721C1F10404E3B20E
:103350000A4144789C40E1B28478144021430C0730
:10336000210E254C05786155047804F01F050124D1
:10337000AC4005786D11AD0005F1E025C5F80041C0
:1033800009E0047804F01F050124AC401B4D0678C9
:10339000761145F8264070BD194A0A400243154B84
:1033A0001B1F1A60704739B1124A121D126802437E
:1033B000104B1B1D1A6006E00E4A121D1268824354
:1033C0000C4B1B1D1A607047042808D14FF0E021F8
:1033D000096941F004014FF0E022116107E04FF06C
:1033E000E021096921F004014FF0E02211617047EA
:1033F0000000FA050CED00E000E400E080E100E0F0
:1034000080FFFF1F002041490860091D0860091D59
:103410000860091D08603E483C4914310860704747
:1034200000213A498279002A3AD00A461268036894
:103430009A430B461A600A1D126803689A430B1DD3
:103440001A60027911440A6803681A430A602F4A15
:103450000832126803689A432C4B08331A601A1D0D
:10346000126803689A43294B0C331A604279102A78
:103470000ED11A1F126803681A43244B08331A60CE
:103480001A1D126803681A43204B0C331A600DE0B2
:103490001E49427911440A6803681A430A6005E02C
:1034A000027911440A6803689A430A607047002150
:1034B000016001710C214171002181717047134934
:1034C000103109680143114A1032116070470146FA
:1034D00000200E4A143212680A400AB1012000E0AE
:1034E00000207047094914310860704701460020E8
:1034F000064A143212680A400AB1012000E0002096
:10350000704702491431086070470000003C0140D8
:10351000FFFF7F0010B501218803FFF75EFE002149
:103520004FF48040FFF759FE10BD1C4908607047FA
:103530001B490862704730B500228B071C0F0F2310
:1035400003FA04F2154B08338C1053F824309343DC
:10355000124C08348D1044F8253023468C1053F853
:1035600024308C07240F00FA04F423430B4C083456
:103570008D1044F8253030BD0949DC3108607047B2
:10358000084908607047002004492031096801F4A7
:10359000807109B1012000E000207047003801402F
:1035A0000000274200042742094880470948004795
:1035B000FEE7FEE7FEE7FEE7FEE7FEE7FEE7FEE7E3
:1035C000FEE7FEE704480549054A064B7047000040
:1035D000C536000889010008C0000020C006002090
:1035E000C0020020C00200200CB500200190009015
:1035F0007648006840F480307449086000BF734822
:10360000006800F4003000900198401C0190009880
:1036100018B90198B0F5A04FF1D16C48006800F4DA
:10362000003010B10120009001E0002000900098CF
:10363000012846D165484030006840F08050634919
:10364000403108606248006840F4404060490860CA
:103650005E48083000685D49083108600846006827
:1036600040F4004008600846006840F4A05008603C
:103670005848091F0860081F006840F08070091F43
:10368000086000BF5148006800F000700028F9D0C1
:1036900040F20570504908604C480830006820F03E
:1036A00003004A49083108600846006840F00200FB
:1036B000086000BF45480830006800F00C0008288A
:1036C000F8D10CBD10B54548006840F4700043497E
:1036D00008603E48006840F001003C490860002056
:1036E0003A4908310860394800683D49084037497F
:1036F00008603C48091D0860081F006820F480200D
:10370000091F0860002031490C310860FFF76CFF89
:103710004FF0006031498039086010BD70B500205D
:103720000022022300240221284D08352D6805F0CF
:103730000C0020B1042806D0082834D107E02A4D17
:103740002A4E356033E02A4D284E35602FE01F4D5C
:103750002D1D2D68C5F380541C4D2D1D2D6805F0C1
:103760003F0154B1224DB5FBF1F5184E361D3668B8
:10377000C6F3881605FB06F209E01B4DB5FBF1F513
:10378000124E361D3668C6F3881605FB06F20F4D3D
:103790002D1D2D68C5F301456D1C6B00B2FBF3F5C3
:1037A000124E356003E0104D104E356000BF00BF73
:1037B000064D08352D68C5F303150E4E705D0B4D93
:1037C0002D68C540094E356070BD000000380240CC
:1037D0000070004019544007003C024088ED00E0B2
:1037E000FFFFF6FE103000240024F4004800002003
:1037F00040787D014C00002010B5203AC0F00B80CD
:10380000B1E81850203AA0E81850B1E81850A0E8E4
:103810001850BFF4F5AF5FEA027C24BFB1E818503E
:10382000A0E8185044BF18C918C0BDE810405FEAAE
:10383000827C24BF51F8043B40F8043B08BF70472A
:10384000D20728BF31F8023B48BF11F8012B28BF2F
:1038500020F8023B48BF00F8012B704770477047C3
:103860007047754600F028F8AE4605006946534695
:1038700020F00700854618B020B5FFF7A3FEBDE88D
:1038800020404FF000064FF000074FF000084FF0C7
:10389000000B21F00701AC46ACE8C009ACE8C00958
:1038A000ACE8C009ACE8C0098D4670470446AFF3E8
:1038B00000802046FCF7B1FC004870475C00002007
:1038C00001491820ABBEFEE72600020070474FF00A
:1038D0004070E1EE100A704700E0F0180818F0E0C0
:1038E000000F1F3020301F0F001010F8F8000000EC
:1038F0000020203F3F202000007078080888F870E2
:103900000030382C262331300030388888C8783091
:103910000018382020311F0E0000C0E030F8F800F9
:1039200000070724243F3F2400F8F8888888080807
:103930000019392120311F0E00E0F09888981800F6
:10394000000F1F3120311F0E00383808C8F8380822
:103950000000003F3F0000000070F8880888F87001
:10396000001C3E2321233E1C00E0F0180818F0E064
:103970000000313322331F0F000808F8F808080050
:103980000020203F3F202000424242F2F29F9F92BF
:10399000929F9FF2F242622284E4660F2FE7C704EF
:1039A00024E7C7072FE8CE0E0000F0F0000000FF6C
:1039B000FF000000F0F0000000003F3F2020203F0B
:1039C0003F2020207F7F000020202020202020FF7B
:1039D000FF202020202020208080C060301C0F038A
:1039E000030F1C3060C08080407031979690919793
:1039F0009690989C17537030040404040444C4FE49
:103A00007E07050404040404FCFEFFFFFEFCF8F03E
:103A1000F0F8FCFEFFFFFEFC03070F1F3F7FFFFFD8
:103A2000FFFF7F3F1F0F07030000000000000000A2
:103A30000000000000000000000000000000000086
:103A40000000000000008080C0C0E0E0E0F0F0F086
:103A5000F8F8F8F8FC7C7C7C7C7C7C3E3E3E3EBEEC
:103A6000FEFEBE3E3E3E3E3C7C7C7C7C7CFCF8F810
:103A7000F8F8F0F0F0E0E0E0C0C080800000000066
:103A80000000000000000000000000000000000036
:103A90000000000000000000000000000000000026
:103AA0000000000000000000000000000000000016
:103AB000000000000000000000000080C0C0E0F036
:103AC000F8FCFC7E3F3F1F0F0F07070303030101B4
:103AD00001000000000000000000000080F8FFFF6F
:103AE000FFFFFFFFF8800000000000000000000062
:103AF0000000010103030307070F0F1F3F3F7EFC78
:103B0000FCF8F0E0E0C080000000000000000000D1
:103B100000000000000000000000000000000000A5
:103B20000000000000000000000000000000000095
:103B300000000000000080E0F8FCFEFF3F1F0F03C4
:103B40000301000000000000000000000000000071
:103B500000000000000000000000E0FCFFFFFF3F4D
:103B600007073FFFFFFFFCE000000000000000002F
:103B70000000000000000000000000000000000045
:103B80000101030F1F3FFFFEFCF8E0800000000072
:103B90000000000000000000000000000000000025
:103BA0000000000000000000000000000000000015
:103BB00000000000E0FEFFFFFF1F03000000000008
:103BC00000000000000000000E1F3F3F7FFFFFFFCE
:103BD000FFFFDFDF9F1F1F1F1F1F1F1F0F0701009A
:103BE00000000001070F1F1F1F1F1F1F1F9FDFDF88
:103BF000FFFFFFFFFF7F3F3F1F0E000000000000A0
:103C000000000000000000031FFFFFFFFEF00000A7
:103C100000000000000000000000000000000000A4
:103C20000000000000000000000000000000000094
:103C3000000000001FFFFFFFFFE000000000000089
:103C40000000000000000000000000000800010368
:103C500003070F1F1FFFFEFEFCF80000000000001E
:103C60000000000000000000F8FCFEFEFF1F1F0F18
:103C70000703030100000000000000000000000036
:103C80000000000000000000E0FFFFFFFF3F000019
:103C90000000000000000000000000000000000024
:103CA0000000000000000000000000000000000014
:103CB000000000000001071F7FFFFFFCF0E0C000D4
:103CC00000000000000000000000000000000000F4
:103CD000000080F0FFFFFFFF1F81C0E0E0F0F8FC74
:103CE000FCFCFCF8F0E0E0C0818FFFFFFFFFF080FC
:103CF00000000000000000000000000000000000C4
:103D0000000000C0E0F0FCFFFF7F3F0F010000005B
:103D100000000000000000000000000000000000A3
:103D20000000000000000000000000000000000093
:103D30000000000000000000000001070F1F1F3FEF
:103D40007EFEFCF8F0F0E0C0C080800000000000C3
:103D500000F8FFFFFFFF7F3F3F1F0F0F0703010129
:103D6000000001010307070F1F3F3F7FFFFFFFFF19
:103D7000F80000000000008080C0C0E0E0F0F8FC27
:103D8000FE7E3F1F1F0F0701000000000000000023
:103D90000000000000000000000000000000000023
:103DA0000000000000000000000000000000000013
:103DB0000000000000000000000000000000000003
:103DC00000000001030307070F0F1F1F1F3F3E7E68
:103DD0007C7C7D7DF9F8F8F8F8F0F0F0F0F0F0F088
:103DE000F0F0F0F0F0F0F0F0F8F8F8F8F8F97D7D88
:103DF0007C7C7E3E3F1F1F1F0F0F0707030301013F
:103E000000000000000000000000000000000000B2
:103E100000000000000000000000000000000000A2
:103E20000000000000000000FFFFFFFFFFFFFFFF9A
:103E3000FFFFFFFFFFFFFFFFFFFFFFFFFFFFFFFF92
:103E4000FFFFFFFFFFFF7F7F3F3F1F1F1F0F0F0F72
:103E50000707070703838383838383C1C1C1C141EC
:103E6000010141C1C1C1C1C38383838383030707A8
:103E700007070F0F0F1F1F1F3F3F7F7FFFFFFFFF32
:103E8000FFFFFFFFFFFFFFFFFFFFFFFFFFFFFFFF42
:103E9000FFFFFFFFFFFFFFFFFFFFFFFFFFFFFFFF32
:103EA000FFFFFFFFFFFFFFFFFFFFFFFFFFFFFFFF22
:103EB000FFFFFFFFFFFFFFFFFFFFFF7F3F3F1F0FE2
:103EC00007030381C0C0E0F0F0F8F8FCFCFCFEFE44
:103ED000FEFFFFFFFFFFFFFFFFFFFFFF7F07000069
:103EE00000000000077FFFFFFFFFFFFFFFFFFFFF56
:103EF000FFFFFEFEFCFCFCF8F8F0F0E0C0C0810320
:103F000003070F1F1F3F7FFFFFFFFFFFFFFFFFFFA5
:103F1000FFFFFFFFFFFFFFFFFFFFFFFFFFFFFFFFB1
:103F2000FFFFFFFFFFFFFFFFFFFFFFFFFFFFFFFFA1
:103F3000FFFFFFFFFFFF7F1F07030100C0E0F0FC52
:103F4000FCFEFFFFFFFFFFFFFFFFFFFFFFFFFFFF85
:103F5000FFFFFFFFFFFFFFFFFFFF1F03000000C089
:103F6000F8F8C0000000031FFFFFFFFFFFFFFFFF87
:103F7000FFFFFFFFFFFFFFFFFFFFFFFFFFFFFFFF51
:103F8000FEFEFCF0E0C0000103071F7FFFFFFFFF04
:103F9000FFFFFFFFFFFFFFFFFFFFFFFFFFFFFFFF31
:103FA000FFFFFFFFFFFFFFFFFFFFFFFFFFFFFFFF21
:103FB000FFFFFFFF1F01000000E0FCFFFFFFFFFF0E
:103FC000FFFFFFFFFFFFFFFFF1E0C0C08000000028
:103FD0000000202060E0E0E0E0E0E0E0F0F8FEFF3C
:103FE000FFFFFFFEF8F0E0E0E0E0E0E0E06020202E
:103FF000000000000080C0C0E0F1FFFFFFFFFFFFF6
:10400000FFFFFFFFFFFFFFFCE0000000010FFFFFCD
:10401000FFFFFFFFFFFFFFFFFFFFFFFFFFFFFFFFB0
:10402000FFFFFFFFFFFFFFFFFFFFFFFFFFFFFFFFA0
:10403000FFFFFFFFE0000000001FFFFFFFFFFFFF8B
:10404000FFFFFFFFFFFFFFFFFFFFFFFFFFFFFEFC84
:10405000FCF8F0E0E00001010307FFFFFFFFFFFFB6
:10406000FFFFFFFFFFFFFFFF0703010100E0E0F09C
:10407000F8FCFCFEFFFFFFFFFFFFFFFFFFFFFFFF5E
:10408000FFFFFFFFFFFFFFFF1F00000000C0FFFF5B
:10409000FFFFFFFFFFFFFFFFFFFFFFFFFFFFFFFF30
:1040A000FFFFFFFFFFFFFFFFFFFFFFFFFFFFFFFF20
:1040B000FFFFFFFFFFFEF8E0800000030F1F3FFF40
:1040C000FFFFFFFFFFFFFFFFFFFFFFFFFFFFFFFF00
:1040D000FFFF7F0F00000000E07E3F1F1F0F070360
:1040E000030303070F1F1F3F7E70000000000F7FB8
:1040F000FFFFFFFFFFFFFFFFFFFFFFFFFFFFFFFFD0
:10410000FFFFFF3F1F0F03000080C0F0FEFFFFFF17
:10411000FFFFFFFFFFFFFFFFFFFFFFFFFFFFFFFFAF
:10412000FFFFFFFFFFFFFFFFFFFFFFFFFFFFFFFF9F
:10413000FFFFFFFFFFFFFFFFFFFFFEF8F0E0E0C023
:10414000810103070F0F1F3F3F7F7FFFFFFFFFFF2F
:10415000FF070000000080C0C0E0F0F0F8FCFEFEA9
:10416000FFFFFEFEFCF8F8F0E0C0C0800000000099
:1041700007FFFFFFFFFFFF7F7F3F3F1F1F0F07036B
:104180000181C0E0E0F0F8FEFFFFFFFFFFFFFFFF4F
:10419000FFFFFFFFFFFFFFFFFFFFFFFFFFFFFFFF2F
:1041A000FFFFFFFFFFFFFFFFFFFFFFFFFFFFFFFF1F
:1041B000FFFFFFFFFFFFFFFFFFFFFFFFFFFFFFFF0F
:1041C000FFFFFFFEFCFCF8F8F0F0E0E0E0C0C1818A
:1041D0008383828206070707070F0F0F0F0F0F0F4A
:1041E0000F0F0F0F0F0F0F0F07070707070682822A
:1041F000838381C1C0E0E0E0F0F0F8F8FCFCFEFE53
:10420000FFFFFFFFFFFFFFFFFFFFFFFFFFFFFFFFBE
:10421000FFFFFFFFFFFFFFFFFFFFFFFFFFFFFFFFAE
:10422000FFFFFFFFFFFFFFFF000000000000000096
:10423000000000000000000000000000808080807E
:10424000C0C0C0C0E0E0E0E0F0F0F0F0F8F8F8F84E
:104250007C7C7C7CF8F8F8F8F0F0F0F0E0E0E0E04E
:10426000C0C0C0C08080808000000000000000004E
:1042700000000000000000000000000000E0F0F07E
:10428000F8F8F8F8FC7C7C7C7E3E3E3E3F1F1F1F0A
:104290001F0F0F0F0F070707070303030301010198
:1042A000000000F0FEFFFFFFFEF0800001010101B1
:1042B000030303030707070F0F0F0F1F1F1F1F3FE6
:1042C0003E3E3E7E7C7C7CFCF8F8F8F8F0F0E000A6
:1042D00000FFFFFFFFFF00000000000000000000E3
:1042E00000000000000000000000000080C0E0E0CE
:1042F000E0F0F0F0F8F8FF7F7F3F0F3F7F7FFFF89F
:10430000F8F0F0F0E0E0E0C0800000000000000005
:104310000000000000000000000000000000FFFF9F
:10432000FFFFFF0000FFFFFFFFFF00000000000095
:10433000000000000000000000000000000000007D
:1043400001030707070F0F0F1F1FFFFEFEFCF0FC06
:10435000FEFEFF1F1F0F0F0F0707070301000000DE
:10436000000000000000000000000000000000004D
:104370000000FFFFFFFFFF0000070F0F1F1F1F1FA1
:104380003F3E3E3E7E7C7C7CF8F8F8F8F0F0F0F0A2
:10439000E0E0E0E0C0C0C0C0808080800000000F8E
:1043A0007FFFFFFF7F0F010080808080C0C0C0C002
:1043B000E0E0E0E0F0F0F0F0F8F8F8F87C7C7C7CED
:1043C0003E3E3E3F1F1F1F1F0F0F07000000000053
:1043D00000000000000000000000000000000000DD
:1043E0000101010103030303070707070F0F0F0F65
:1043F0001F1F1F1F3E3E3E3E1F1F1F1F0F0F0F0F91
:104400000707070703030303010101010000000080
:10441000000000000000000000000000000000009C
:1044200080804020504844C3444850204080800051
:104430004040424A7242427F4242625A42404000F9
:104440000000C05F555555555555555F404000001B
:1044500080601F04FD85450D152525554D8484007C
:10446000807000FF102810FC0340207F8886E00049
:1044700080601807083004050404FF0404040400E5
:1044800000028282828282FE828282828202000016
:10449000404040404040407F40404040404040001D
:1044A0002030AC63300082621E020242827E000035
:1044B00022672212120100FE4242424242FE0000E6
:1044C000008088464020100F1010282442800000F1
:1044D0008080484620100807081028464080800049
:1044E00000028282828282FE8282828282020000B6
:1044F000404040404040407F4040404040404000BD
:104500002020FF2024F4545454FF545556F4040042
:104510000000FF00080B1969090B49897D0B080091
:10452000008060F80700080808080808080800006C
:10453000010000FF001010101010101010101000DB
:104540000000809E929292929292929E8000000031
:104550008484444424140C070C14244444848400AC
:1045600040404242424242FE4242424242404000B9
:1045700080804020100C0300030C1020408080003D
:1045800000F80C0B08F8A09E8888FF8888888000B7
:10459000007F2121217F00FC4444444444FC00006E
:1045A0004030EF24244020100C23CC102040400049
:1045B00001017F21110001091121D10D030000002B
:1045C0000414D454545454DF54545454D414040094
:1045D00080601F02020202030202020203000000C6
:1045E00000201010F0000000000808080F08080064
:1045F0004030EF24244020100C23CC1020404000F9
:1046000001017F21110001091121D10D03000000DA
:104610000414D454545454DF54545454D414040043
:1046200080601F0202020203020202020300000075
:104630000010101090F00000000C0C0A090808008F
:104640004030EF24244020100C23CC1020404000A8
:1046500001017F21110001091121D10D030000008A
:104660000414D454545454DF54545454D4140400F3
:1046700080601F0202020203020202020300000025
:10468000001090909070000000080808090F0600C4
:104690004030EF24244020100C23CC102040400058
:1046A00001017F21110001091121D10D030000003A
:1046B0000414D454545454DF54545454D4140400A3
:1046C00080601F02020202030202020203000000D5
:1046D0000000C02010F0000002030202020F0200DE
:1046E000404042CC00808888FF8888FF888880000E
:1046F0000040201F2040504C4340405F404040005D
:10470000000000000001E21CE000000000000000CA
:10471000804020100C03000000030C30408080001B
:10472000404042CC0040404040FF404040404000BC
:104730000000007F2010000000FF000000000000CB
:1047400000FC848484FC001010101010FF10100076
:10475000003F1010103F0000010640807F00000065
:10476000000000FE929292FE929292FE00000000E3
:1047700008080484621E010001FE02040408080007
:104780000202E22222F22E2222E22222E20202008F
:104790000000FF40407F4949497F4040FF00000042
:1047A000101010FF109004040404FC04040404001E
:1047B0000444827F0100000040807F000000000070
:1047C00000FC2424FC0008E80808FF0808E80800AA
:1047D000003F11113F00000302023F4242477000B8
:1047E00000FC848484FC001010101010FF101000D6
:1047F000003F1010103F0000010640807F000000C5
:1048000000F8010600F0121212F2020202FE00008D
:1048100000FF0000001F1111111F0040807F0000E9
:10482000404042CC0040A09E8282829EA020200078
:104830000000003F908840432C10284641808000B3
:10484000001715D55557557D555755D515170000E7
:104850004040407F555555555555557F4040400087
:1048600080804020100804C304081020408080008D
:1048700000000000000000FF000000000000000039
:1048800000E000FF1020403C1010FF10101000004E
:10489000010000FF0000404242427F42424240008D
:1048A0004030EF24244020100C23CC102040400046
:1048B00001017F21110001091121D10D0300000028
:1048C0000414D454545454DF54545454D414040091
:1048D00080601F02020202030202020203000000C3
:1048E000404042CC00504EC8487FC8484840000075
:1048F0000040201F20504C4340404F50505C40002F
:104900001010FF100082864A52A2524A8680800010
:1049100042827F010010121212FF121212100000C8
:1049200000001011161010F01010141310000000E9
:104930008181414121110D030D11214141818100EE
:1049400040404242424242FE4242424242404000D5
:10495000000000000040807F000000000000000018
:10496000008060F80740300FF888888888080800C1
:10497000010000FF00000000FF0808080808000010
:10498000202024242424BF6424342824222020002E
:1049900010080402FF494949494949FF0000000045
:1049A000C0490008000000205C000000C4010008AD
:1049B0001C4A00085C00002064060000E0010008BA
:1049C00000000002000500000000000000070000D9
:1049D000000000000102030405FF0504030201FFBB
:1049E0000103050301FF0503010305FF001E32500B
:1049F00001010101000000000000010203040102A6
:104A00000304060708090000007A030A00000000FA
:0C4A100000000000010203040607080972
:040000050800018965
:00000001FF
